{
"abi": [
{
"inputs": [],
"stateMutability": "nonpayable",
"type": "constructor"
},
{
"inputs": [
{
"internalType": "string",
"name": "",
"type": "string"
}
],
"name": "IncompleteWithdrawCriteria",
"type": "error"
},
{
"inputs": [
{
"internalType": "string",
"name": "",
"type": "string"
}
],
"name": "InvalidPurchasePrice",
"type": "error"
},
{
"anonymous": false,
"inputs": [
{
"indexed": true,
"internalType": "address",
"name": "owner",
"type": "address"
},
{
"indexed": true,
"internalType": "address",
"name": "approved",
"type": "address"
},
{
"indexed": true,
"internalType": "uint256",
"name": "tokenId",
"type": "uint256"
}
],
"name": "Approval",
"type": "event"
},
{
"anonymous": false,
"inputs": [
{
"indexed": true,
"internalType": "address",
"name": "owner",
"type": "address"
},
{
"indexed": true,
"internalType": "address",
"name": "operator",
"type": "address"
},
{
"indexed": false,
"internalType": "bool",
"name": "approved",
"type": "bool"
}
],
"name": "ApprovalForAll",
"type": "event"
},
{
"anonymous": false,
"inputs": [
{
"indexed": true,
"internalType": "address",
"name": "previousOwner",
"type": "address"
},
{
"indexed": true,
"internalType": "address",
"name": "newOwner",
"type": "address"
}
],
"name": "OwnershipTransferred",
"type": "event"
},
{
"anonymous": false,
"inputs": [
{
"indexed": true,
"internalType": "address",
"name": "from",
"type": "address"
},
{
"indexed": true,
"internalType": "address",
"name": "to",
"type": "address"
},
{
"indexed": true,
"internalType": "uint256",
"name": "tokenId",
"type": "uint256"
}
],
"name": "Transfer",
"type": "event"
},
{
"inputs": [
{
"internalType": "address",
"name": "to",
"type": "address"
},
{
"internalType": "uint256",
"name": "tokenId",
"type": "uint256"
}
],
"name": "approve",
"outputs": [],
"stateMutability": "nonpayable",
"type": "function"
},
{
"inputs": [
{
"internalType": "address",
"name": "owner",
"type": "address"
}
],
"name": "balanceOf",
"outputs": [
{
"internalType": "uint256",
"name": "",
"type": "uint256"
}
],
"stateMutability": "view",
"type": "function"
},
{
"inputs": [
{
"internalType": "uint256",
"name": "_tokenId",
"type": "uint256"
}
],
"name": "buyEventTicket",
"outputs": [],
"stateMutability": "payable",
"type": "function"
},
{
"inputs": [
{
"internalType": "string",
"name": "eventTitle",
"type": "string"
},
{
"internalType": "string",
"name": "eventLocation",
"type": "string"
},
{
"internalType": "string",
"name": "ticketURI",
"type": "string"
},
{
"internalType": "uint256",
"name": "eventDate",
"type": "uint256"
},
{
"internalType": "uint256",
"name": "ticketPrice",
"type": "uint256"
},
{
"internalType": "uint256",
"name": "maxAmountOfSale",
"type": "uint256"
}
],
"name": "createEvent",
"outputs": [],
"stateMutability": "nonpayable",
"type": "function"
},
{
"inputs": [
{
"internalType": "address",
"name": "",
"type": "address"
},
{
"internalType": "uint256",
"name": "",
"type": "uint256"
}
],
"name": "eventPurchased",
"outputs": [
{
"internalType": "address",
"name": "OwnerOfTicket",
"type": "address"
},
{
"internalType": "string",
"name": "EventTitle",
"type": "string"
},
{
"internalType": "string",
"name": "EventLocation",
"type": "string"
},
{
"internalType": "string",
"name": "TicketURI",
"type": "string"
},
{
"internalType": "uint256",
"name": "EventDate",
"type": "uint256"
},
{
"internalType": "uint256",
"name": "TicketPrice",
"type": "uint256"
},
{
"internalType": "uint256",
"name": "NumberOfSale",
"type": "uint256"
},
{
"internalType": "uint256",
"name": "MaxSale",
"type": "uint256"
},
{
"internalType": "uint256",
"name": "totalAmountGottenFromSale",
"type": "uint256"
},
{
"internalType": "bool",
"name": "isCurrentlyListed",
"type": "bool"
},
{
"internalType": "uint256",
"name": "CreateTokenID",
"type": "uint256"
}
],
"stateMutability": "view",
"type": "function"
},
{
"inputs": [],
"name": "getAllEvents",
"outputs": [
{
"components": [
{
"internalType": "address",
"name": "OwnerOfTicket",
"type": "address"
},
{
"internalType": "string",
"name": "EventTitle",
"type": "string"
},
{
"internalType": "string",
"name": "EventLocation",
"type": "string"
},
{
"internalType": "string",
"name": "TicketURI",
"type": "string"
},
{
"internalType": "uint256",
"name": "EventDate",
"type": "uint256"
},
{
"internalType": "uint256",
"name": "TicketPrice",
"type": "uint256"
},
{
"internalType": "uint256",
"name": "NumberOfSale",
"type": "uint256"
},
{
"internalType": "uint256",
"name": "MaxSale",
"type": "uint256"
},
{
"internalType": "uint256",
"name": "totalAmountGottenFromSale",
"type": "uint256"
},
{
"internalType": "bool",
"name": "isCurrentlyListed",
"type": "bool"
},
{
"internalType": "uint256",
"name": "CreateTokenID",
"type": "uint256"
}
],
"internalType": "struct EventFlowTicket.ListedEvent[]",
"name": "",
"type": "tuple[]"
}
],
"stateMutability": "view",
"type": "function"
},
{
"inputs": [
{
"internalType": "uint256",
"name": "tokenId",
"type": "uint256"
}
],
"name": "getApproved",
"outputs": [
{
"internalType": "address",
"name": "",
"type": "address"
}
],
"stateMutability": "view",
"type": "function"
},
{
"inputs": [
{
"internalType": "uint256",
"name": "_amount",
"type": "uint256"
}
],
"name": "getFeePercentage",
"outputs": [
{
"internalType": "uint256",
"name": "",
"type": "uint256"
},
{
"internalType": "uint256",
"name": "",
"type": "uint256"
}
],
"stateMutability": "view",
"type": "function"
},
{
"inputs": [],
"name": "getMyEvents",
"outputs": [
{
"components": [
{
"internalType": "address",
"name": "OwnerOfTicket",
"type": "address"
},
{
"internalType": "string",
"name": "EventTitle",
"type": "string"
},
{
"internalType": "string",
"name": "EventLocation",
"type": "string"
},
{
"internalType": "string",
"name": "TicketURI",
"type": "string"
},
{
"internalType": "uint256",
"name": "EventDate",
"type": "uint256"
},
{
"internalType": "uint256",
"name": "TicketPrice",
"type": "uint256"
},
{
"internalType": "uint256",
"name": "NumberOfSale",
"type": "uint256"
},
{
"internalType": "uint256",
"name": "MaxSale",
"type": "uint256"
},
{
"internalType": "uint256",
"name": "totalAmountGottenFromSale",
"type": "uint256"
},
{
"internalType": "bool",
"name": "isCurrentlyListed",
"type": "bool"
},
{
"internalType": "uint256",
"name": "CreateTokenID",
"type": "uint256"
}
],
"internalType": "struct EventFlowTicket.ListedEvent[]",
"name": "myEvents",
"type": "tuple[]"
}
],
"stateMutability": "view",
"type": "function"
},
{
"inputs": [
{
"internalType": "uint256",
"name": "_tokenId",
"type": "uint256"
}
],
"name": "getOneEvent",
"outputs": [
{
"components": [
{
"internalType": "address",
"name": "OwnerOfTicket",
"type": "address"
},
{
"internalType": "string",
"name": "EventTitle",
"type": "string"
},
{
"internalType": "string",
"name": "EventLocation",
"type": "string"
},
{
"internalType": "string",
"name": "TicketURI",
"type": "string"
},
{
"internalType": "uint256",
"name": "EventDate",
"type": "uint256"
},
{
"internalType": "uint256",
"name": "TicketPrice",
"type": "uint256"
},
{
"internalType": "uint256",
"name": "NumberOfSale",
"type": "uint256"
},
{
"internalType": "uint256",
"name": "MaxSale",
"type": "uint256"
},
{
"internalType": "uint256",
"name": "totalAmountGottenFromSale",
"type": "uint256"
},
{
"internalType": "bool",
"name": "isCurrentlyListed",
"type": "bool"
},
{
"internalType": "uint256",
"name": "CreateTokenID",
"type": "uint256"
}
],
"internalType": "struct EventFlowTicket.ListedEvent",
"name": "",
"type": "tuple"
}
],
"stateMutability": "view",
"type": "function"
},
{
"inputs": [
{
"internalType": "address",
"name": "owner",
"type": "address"
},
{
"internalType": "address",
"name": "operator",
"type": "address"
}
],
"name": "isApprovedForAll",
"outputs": [
{
"internalType": "bool",
"name": "",
"type": "bool"
}
],
"stateMutability": "view",
"type": "function"
},
{
"inputs": [],
"name": "name",
"outputs": [
{
"internalType": "string",
"name": "",
"type": "string"
}
],
"stateMutability": "view",
"type": "function"
},
{
"inputs": [],
"name": "owner",
"outputs": [
{
"internalType": "address",
"name": "",
"type": "address"
}
],
"stateMutability": "view",
"type": "function"
},
{
"inputs": [
{
"internalType": "uint256",
"name": "tokenId",
"type": "uint256"
}
],
"name": "ownerOf",
"outputs": [
{
"internalType": "address",
"name": "",
"type": "address"
}
],
"stateMutability": "view",
"type": "function"
},
{
"inputs": [],
"name": "renounceOwnership",
"outputs": [],
"stateMutability": "nonpayable",
"type": "function"
},
{
"inputs": [
{
"internalType": "address",
"name": "from",
"type": "address"
},
{
"internalType": "address",
"name": "to",
"type": "address"
},
{
"internalType": "uint256",
"name": "tokenId",
"type": "uint256"
}
],
"name": "safeTransferFrom",
"outputs": [],
"stateMutability": "nonpayable",
"type": "function"
},
{
"inputs": [
{
"internalType": "address",
"name": "from",
"type": "address"
},
{
"internalType": "address",
"name": "to",
"type": "address"
},
{
"internalType": "uint256",
"name": "tokenId",
"type": "uint256"
},
{
"internalType": "bytes",
"name": "data",
"type": "bytes"
}
],
"name": "safeTransferFrom",
"outputs": [],
"stateMutability": "nonpayable",
"type": "function"
},
{
"inputs": [
{
"internalType": "address",
"name": "operator",
"type": "address"
},
{
"internalType": "bool",
"name": "approved",
"type": "bool"
}
],
"name": "setApprovalForAll",
"outputs": [],
"stateMutability": "nonpayable",
"type": "function"
},
{
"inputs": [
{
"internalType": "bytes4",
"name": "interfaceId",
"type": "bytes4"
}
],
"name": "supportsInterface",
"outputs": [
{
"internalType": "bool",
"name": "",
"type": "bool"
}
],
"stateMutability": "view",
"type": "function"
},
{
"inputs": [],
"name": "symbol",
"outputs": [
{
"internalType": "string",
"name": "",
"type": "string"
}
],
"stateMutability": "view",
"type": "function"
},
{
"inputs": [
{
"internalType": "uint256",
"name": "tokenId",
"type": "uint256"
}
],
"name": "tokenURI",
"outputs": [
{
"internalType": "string",
"name": "",
"type": "string"
}
],
"stateMutability": "view",
"type": "function"
},
{
"inputs": [
{
"internalType": "address",
"name": "from",
"type": "address"
},
{
"internalType": "address",
"name": "to",
"type": "address"
},
{
"internalType": "uint256",
"name": "tokenId",
"type": "uint256"
}
],
"name": "transferFrom",
"outputs": [],
"stateMutability": "nonpayable",
"type": "function"
},
{
"inputs": [
{
"internalType": "address",
"name": "newOwner",
"type": "address"
}
],
"name": "transferOwnership",
"outputs": [],
"stateMutability": "nonpayable",
"type": "function"
},
{
"inputs": [
{
"internalType": "uint256",
"name": "_tokenId",
"type": "uint256"
}
],
"name": "withdrawAmountFromTicketSale",
"outputs": [
{
"internalType": "string",
"name": "",
"type": "string"
},
{
"internalType": "uint256",
"name": "",
"type": "uint256"
},
{
"internalType": "string",
"name": "",
"type": "string"
},
{
"internalType": "uint256",
"name": "",
"type": "uint256"
}
],
"stateMutability": "nonpayable",
"type": "function"
}
],
"bytecode": {
"object": "0x60806040523480156200001157600080fd5b50604080518082018252601081526f115d995b9d119b1bddc8151a58dad95d60821b60208083019182528351808501909452600784526611551a58dad95d60ca1b9084015281519192916200006991600091620000f8565b5080516200007f906001906020840190620000f8565b5050506200009c62000096620000a260201b60201c565b620000a6565b620001db565b3390565b600780546001600160a01b038381166001600160a01b0319831681179093556040519116919082907f8be0079c531659141344cd1fd0a4f28419497f9722a3daafe3b4186f6b6457e090600090a35050565b82805462000106906200019e565b90600052602060002090601f0160209004810192826200012a576000855562000175565b82601f106200014557805160ff191683800117855562000175565b8280016001018555821562000175579182015b828111156200017557825182559160200191906001019062000158565b506200018392915062000187565b5090565b5b8082111562000183576000815560010162000188565b600181811c90821680620001b357607f821691505b60208210811415620001d557634e487b7160e01b600052602260045260246000fd5b50919050565b61369180620001eb6000396000f3fe60806040526004361061014b5760003560e01c8063715018a6116100b6578063b88d4fde1161006f578063b88d4fde146103de578063c27a500d146103fe578063c87b56dd14610413578063e985e9c514610433578063f08a491e1461047c578063f2fde38b146104b357600080fd5b8063715018a61461033357806374a4ac63146103485780637fe0a1861461035b5780638da5cb5b1461038b57806395d89b41146103a9578063a22cb465146103be57600080fd5b806323b872dd1161010857806323b872dd146102635780633548124b1461028357806342842e0e146102a5578063492a9271146102c55780636352211e146102e557806370a082311461030557600080fd5b806301ffc9a71461015057806306fdde0314610185578063081812fc146101a7578063095ea7b3146101df57806310241a441461020157806320af4a891461022e575b600080fd5b34801561015c57600080fd5b5061017061016b366004612e16565b6104d3565b60405190151581526020015b60405180910390f35b34801561019157600080fd5b5061019a6104e4565b60405161017c9190612e8b565b3480156101b357600080fd5b506101c76101c2366004612e9e565b610576565b6040516001600160a01b03909116815260200161017c565b3480156101eb57600080fd5b506101ff6101fa366004612ed3565b61059d565b005b34801561020d57600080fd5b5061022161021c366004612e9e565b6106b8565b60405161017c9190612fbb565b34801561023a57600080fd5b5061024e610249366004612e9e565b610917565b6040805192835260208301919091520161017c565b34801561026f57600080fd5b506101ff61027e366004612fce565b610996565b34801561028f57600080fd5b506102986109c7565b60405161017c919061300a565b3480156102b157600080fd5b506101ff6102c0366004612fce565b610d7a565b3480156102d157600080fd5b506101ff6102e0366004613118565b610d95565b3480156102f157600080fd5b506101c7610300366004612e9e565b61107b565b34801561031157600080fd5b506103256103203660046131bc565b6110db565b60405190815260200161017c565b34801561033f57600080fd5b506101ff611161565b6101ff610356366004612e9e565b611175565b34801561036757600080fd5b5061037b610376366004612e9e565b6117ea565b60405161017c94939291906131d7565b34801561039757600080fd5b506007546001600160a01b03166101c7565b3480156103b557600080fd5b5061019a611b9c565b3480156103ca57600080fd5b506101ff6103d9366004613214565b611bab565b3480156103ea57600080fd5b506101ff6103f9366004613250565b611bba565b34801561040a57600080fd5b50610298611bf2565b34801561041f57600080fd5b5061019a61042e366004612e9e565b611e6f565b34801561043f57600080fd5b5061017061044e3660046132cc565b6001600160a01b03918216600090815260056020908152604080832093909416825291909152205460ff1690565b34801561048857600080fd5b5061049c610497366004612ed3565b611e7a565b60405161017c9b9a999897969594939291906132ff565b3480156104bf57600080fd5b506101ff6104ce3660046131bc565b612098565b60006104de82612111565b92915050565b6060600080546104f39061338b565b80601f016020809104026020016040519081016040528092919081815260200182805461051f9061338b565b801561056c5780601f106105415761010080835404028352916020019161056c565b820191906000526020600020905b81548152906001019060200180831161054f57829003601f168201915b5050505050905090565b600061058182612161565b506000908152600460205260409020546001600160a01b031690565b60006105a88261107b565b9050806001600160a01b0316836001600160a01b0316141561061b5760405162461bcd60e51b815260206004820152602160248201527f4552433732313a20617070726f76616c20746f2063757272656e74206f776e656044820152603960f91b60648201526084015b60405180910390fd5b336001600160a01b03821614806106375750610637813361044e565b6106a95760405162461bcd60e51b815260206004820152603d60248201527f4552433732313a20617070726f76652063616c6c6572206973206e6f7420746f60448201527f6b656e206f776e6572206f7220617070726f76656420666f7220616c6c0000006064820152608401610612565b6106b383836121c0565b505050565b6106c0612d02565b6009548211156106e25760405162461bcd60e51b8152600401610612906133c6565b6000828152600a60209081526040918290208251610160810190935280546001600160a01b03168352600181018054919284019161071f9061338b565b80601f016020809104026020016040519081016040528092919081815260200182805461074b9061338b565b80156107985780601f1061076d57610100808354040283529160200191610798565b820191906000526020600020905b81548152906001019060200180831161077b57829003601f168201915b505050505081526020016002820180546107b19061338b565b80601f01602080910402602001604051908101604052809291908181526020018280546107dd9061338b565b801561082a5780601f106107ff5761010080835404028352916020019161082a565b820191906000526020600020905b81548152906001019060200180831161080d57829003601f168201915b505050505081526020016003820180546108439061338b565b80601f016020809104026020016040519081016040528092919081815260200182805461086f9061338b565b80156108bc5780601f10610891576101008083540402835291602001916108bc565b820191906000526020600020905b81548152906001019060200180831161089f57829003601f168201915b505050918352505060048201546020820152600582015460408201526006820154606082015260078201546080820152600882015460a0820152600982015460ff16151560c0820152600a9091015460e09091015292915050565b60085460009081906001600160a01b031633146109625760405162461bcd60e51b81526020600482015260096024820152682737ba1037bbb732b960b91b6044820152606401610612565b60006127106109728560b661340a565b61097c9190613429565b9050600061098a828661344b565b91959194509092505050565b6109a0338261222e565b6109bc5760405162461bcd60e51b815260040161061290613462565b6106b38383836122ad565b600b5460609060009067ffffffffffffffff8111156109e8576109e861306c565b604051908082528060200260200182016040528015610a2157816020015b610a0e612d02565b815260200190600190039081610a065790505b50905060008060005b8351811015610a72576000818152600a60205260409020546001600160a01b0316331415610a6057610a5d6001846134af565b92505b80610a6a816134d7565b915050610a2a565b508163ffffffff1667ffffffffffffffff811115610a9257610a9261306c565b604051908082528060200260200182016040528015610acb57816020015b610ab8612d02565b815260200190600190039081610ab05790505b50935060005b8451811015610d73576000818152600a60205260409020546001600160a01b0316331415610d61576000818152600a60209081526040918290208251610160810190935280546001600160a01b0316835260018101805491939284929084019190610b3b9061338b565b80601f0160208091040260200160405190810160405280929190818152602001828054610b679061338b565b8015610bb45780601f10610b8957610100808354040283529160200191610bb4565b820191906000526020600020905b815481529060010190602001808311610b9757829003601f168201915b50505050508152602001600282018054610bcd9061338b565b80601f0160208091040260200160405190810160405280929190818152602001828054610bf99061338b565b8015610c465780601f10610c1b57610100808354040283529160200191610c46565b820191906000526020600020905b815481529060010190602001808311610c2957829003601f168201915b50505050508152602001600382018054610c5f9061338b565b80601f0160208091040260200160405190810160405280929190818152602001828054610c8b9061338b565b8015610cd85780601f10610cad57610100808354040283529160200191610cd8565b820191906000526020600020905b815481529060010190602001808311610cbb57829003601f168201915b505050918352505060048201546020820152600582015460408201526006820154606082015260078201546080820152600882015460a0820152600982015460ff16151560c0820152600a9091015460e0909101528651879063ffffffff8616908110610d4757610d476134f2565b6020908102919091010152610d5d6001846134af565b9250505b80610d6b816134d7565b915050610ad1565b5050505090565b6106b383838360405180602001604052806000815250611bba565b6000610da060095490565b90506000610dae8542613508565b90506000610dc485670de0b6b3a764000061340a565b9050610dd0308461241e565b610dda83886125b7565b604080516101608101825233815260208082018c81528284018c9052606083018b90526080830186905260a08301859052600060c0840181905260e084018990526101008401819052600161012085018190526101408501899052888252600a8452949020835181546001600160a01b0319166001600160a01b039091161781559051805193949193610e7593928501929190910190612d67565b5060408201518051610e91916002840191602090910190612d67565b5060608201518051610ead916003840191602090910190612d67565b506080820151816004015560a0820151816005015560c0820151816006015560e0820151816007015561010082015181600801556101208201518160090160006101000a81548160ff02191690831515021790555061014082015181600a0155905050600b604051806101600160405280336001600160a01b031681526020018b81526020018a815260200189815260200188815260200183815260200160008152602001868152602001600081526020016001151581526020018581525090806001815401808255809150506001900390600052602060002090600b020160009091909190915060008201518160000160006101000a8154816001600160a01b0302191690836001600160a01b031602179055506020820151816001019080519060200190610fde929190612d67565b5060408201518051610ffa916002840191602090910190612d67565b5060608201518051611016916003840191602090910190612d67565b506080820151600482015560a0820151600582015560c0820151600682015560e08201516007820155610100820151600882015561012082015160098201805460ff191691151591909117905561014090910151600a90910155505050505050505050565b6000818152600260205260408120546001600160a01b0316806104de5760405162461bcd60e51b8152602060048201526018602482015277115490cdcc8c4e881a5b9d985b1a59081d1bdad95b88125160421b6044820152606401610612565b60006001600160a01b0382166111455760405162461bcd60e51b815260206004820152602960248201527f4552433732313a2061646472657373207a65726f206973206e6f7420612076616044820152683634b21037bbb732b960b91b6064820152608401610612565b506001600160a01b031660009081526003602052604090205490565b611169612651565b61117360006126ab565b565b6009548111156111975760405162461bcd60e51b8152600401610612906133c6565b6000818152600a602090815260408083208151610160810190925280546001600160a01b0316825260018101805492939192918401916111d69061338b565b80601f01602080910402602001604051908101604052809291908181526020018280546112029061338b565b801561124f5780601f106112245761010080835404028352916020019161124f565b820191906000526020600020905b81548152906001019060200180831161123257829003601f168201915b505050505081526020016002820180546112689061338b565b80601f01602080910402602001604051908101604052809291908181526020018280546112949061338b565b80156112e15780601f106112b6576101008083540402835291602001916112e1565b820191906000526020600020905b8154815290600101906020018083116112c457829003601f168201915b505050505081526020016003820180546112fa9061338b565b80601f01602080910402602001604051908101604052809291908181526020018280546113269061338b565b80156113735780601f1061134857610100808354040283529160200191611373565b820191906000526020600020905b81548152906001019060200180831161135657829003601f168201915b50505091835250506004820154602080830191909152600583015460408084019190915260068401546060808501919091526007850154608080860191909152600886015460a080870191909152600987015460ff16151560c080880191909152600a9097015460e0968701528751958801519088015191880151968801519288015194880151938801516101208901519899509597909691959194929386939290916114565760405162461bcd60e51b8152602060048201526011602482015270151a58dad95d081cd85b1948195b991959607a1b6044820152606401610612565b8785106114a55760405162461bcd60e51b815260206004820152601e60248201527f546f74616c20737570706c79206f66207469636b6574207265616368656400006044820152606401610612565b86341461152e576040516306844a6f60e11b815260206004820152604a60248201527f4572726f723a20506c65617365207375626d6974207468652061736b696e672060448201527f707269636520696e206f7264657220746f20636f6d706c657465207469636b656064820152697420707572636861736560b01b608482015260a401610612565b6001600160a01b03891661157c5760405162461bcd60e51b8152602060048201526015602482015274115c9c9bdc8e88125b9d985b1a5908151a58dad95d605a1b6044820152606401610612565b8542106115c35760405162461bcd60e51b8152602060048201526015602482015274115c9c9bdc8e88151a58dad95d08195e1c1a5c9959605a1b6044820152606401610612565b6001600b8c815481106115d8576115d86134f2565b90600052602060002090600b020160060160008282546115f89190613508565b9250508190555034600b8c81548110611613576116136134f2565b90600052602060002090600b020160080160008282546116339190613508565b92505081905550348a6101000181815161164d9190613508565b90525061165a33846126fd565b600c6000336001600160a01b03166001600160a01b03168152602001908152602001600020604051806101600160405280336001600160a01b03168152602001848152602001838152602001858152602001888152602001868152602001600081526020018a8152602001600081526020016001151581526020018d81525090806001815401808255809150506001900390600052602060002090600b020160009091909190915060008201518160000160006101000a8154816001600160a01b0302191690836001600160a01b03160217905550602082015181600101908051906020019061174b929190612d67565b5060408201518051611767916002840191602090910190612d67565b5060608201518051611783916003840191602090910190612d67565b506080820151600482015560a0820151600582015560c0820151600682015560e08201516007820155610100820151600882015561012082015160098201805460ff191691151591909117905561014090910151600a909101555050505050505050505050565b6000818152600a602052604081205460609190829082906001600160a01b031633811461184b5760405162461bcd60e51b815260206004820152600f60248201526e2737ba1032bb32b73a1037bbb732b960891b6044820152606401610612565b60095486111561186d5760405162461bcd60e51b8152600401610612906133c6565b6000868152600a602052604090206009015460ff166118c25760405162461bcd60e51b8152602060048201526011602482015270151a58dad95d081cd85b1948195b991959607a1b6044820152606401610612565b6000868152600a6020526040902060098101805460ff19169055600801546001600160a01b03821661192e5760405162461bcd60e51b8152602060048201526015602482015274115c9c9bdc8e88125b9d985b1a5908151a58dad95d605a1b6044820152606401610612565b600081116119955760405162461bcd60e51b815260206004820152602e60248201527f4572726f723a204e6f207469636b65742073616c65207965742c206e6f74686960448201526d6e6720746f20776974686472617760901b6064820152608401610612565b6040516320af4a8960e01b815260048101829052600090819030906320af4a8990602401604080518083038186803b1580156119d057600080fd5b505afa1580156119e4573d6000803e3d6000fd5b505050506040513d601f19601f82011682018060405250810190611a089190613520565b6008546040519294509092506000916001600160a01b039091169084908381818185875af1925050503d8060008114611a5d576040519150601f19603f3d011682016040523d82523d6000602084013e611a62565b606091505b505090506000856001600160a01b03168360405160006040518083038185875af1925050503d8060008114611ab3576040519150601f19603f3d011682016040523d82523d6000602084013e611ab8565b606091505b5050905081611afa5760405162461bcd60e51b815260206004820152600e60248201526d11985a5b1959081d1bc81cd95b9960921b6044820152606401610612565b80611b385760405162461bcd60e51b815260206004820152600e60248201526d11985a5b1959081d1bc81cd95b9960921b6044820152606401610612565b5050604080518082018252600881526727bab9103332b29d60c11b6020808301919091528251808401909352601c83527f416d6f756e742073656e7420746f206576656e742063726561746f7200000000908301529a929950975095509350505050565b6060600180546104f39061338b565b611bb633838361272c565b5050565b611bc4338361222e565b611be05760405162461bcd60e51b815260040161061290613462565b611bec848484846127fb565b50505050565b6060600b805480602002602001604051908101604052809291908181526020016000905b82821015611e66576000848152602090819020604080516101608101909152600b850290910180546001600160a01b031682526001810180549293919291840191611c609061338b565b80601f0160208091040260200160405190810160405280929190818152602001828054611c8c9061338b565b8015611cd95780601f10611cae57610100808354040283529160200191611cd9565b820191906000526020600020905b815481529060010190602001808311611cbc57829003601f168201915b50505050508152602001600282018054611cf29061338b565b80601f0160208091040260200160405190810160405280929190818152602001828054611d1e9061338b565b8015611d6b5780601f10611d4057610100808354040283529160200191611d6b565b820191906000526020600020905b815481529060010190602001808311611d4e57829003601f168201915b50505050508152602001600382018054611d849061338b565b80601f0160208091040260200160405190810160405280929190818152602001828054611db09061338b565b8015611dfd5780601f10611dd257610100808354040283529160200191611dfd565b820191906000526020600020905b815481529060010190602001808311611de057829003601f168201915b50505091835250506004820154602080830191909152600583015460408301526006830154606083015260078301546080830152600883015460a0830152600983015460ff16151560c0830152600a9092015460e0909101529082526001929092019101611c16565b50505050905090565b60606104de8261282e565b600c6020528160005260406000208181548110611e9657600080fd5b60009182526020909120600b9091020180546001820180546001600160a01b039092169450919250611ec79061338b565b80601f0160208091040260200160405190810160405280929190818152602001828054611ef39061338b565b8015611f405780601f10611f1557610100808354040283529160200191611f40565b820191906000526020600020905b815481529060010190602001808311611f2357829003601f168201915b505050505090806002018054611f559061338b565b80601f0160208091040260200160405190810160405280929190818152602001828054611f819061338b565b8015611fce5780601f10611fa357610100808354040283529160200191611fce565b820191906000526020600020905b815481529060010190602001808311611fb157829003601f168201915b505050505090806003018054611fe39061338b565b80601f016020809104026020016040519081016040528092919081815260200182805461200f9061338b565b801561205c5780601f106120315761010080835404028352916020019161205c565b820191906000526020600020905b81548152906001019060200180831161203f57829003601f168201915b50505050600483015460058401546006850154600786015460088701546009880154600a90980154969794969395509193909260ff909116908b565b6120a0612651565b6001600160a01b0381166121055760405162461bcd60e51b815260206004820152602660248201527f4f776e61626c653a206e6577206f776e657220697320746865207a65726f206160448201526564647265737360d01b6064820152608401610612565b61210e816126ab565b50565b60006001600160e01b031982166380ac58cd60e01b148061214257506001600160e01b03198216635b5e139f60e01b145b806104de57506301ffc9a760e01b6001600160e01b03198316146104de565b6000818152600260205260409020546001600160a01b031661210e5760405162461bcd60e51b8152602060048201526018602482015277115490cdcc8c4e881a5b9d985b1a59081d1bdad95b88125160421b6044820152606401610612565b600081815260046020526040902080546001600160a01b0319166001600160a01b03841690811790915581906121f58261107b565b6001600160a01b03167f8c5be1e5ebec7d5bd14f71427d1e84f3dd0314c0f7b2291e5b200ac8c7c3b92560405160405180910390a45050565b60008061223a8361107b565b9050806001600160a01b0316846001600160a01b0316148061228157506001600160a01b0380821660009081526005602090815260408083209388168352929052205460ff165b806122a55750836001600160a01b031661229a84610576565b6001600160a01b0316145b949350505050565b826001600160a01b03166122c08261107b565b6001600160a01b0316146122e65760405162461bcd60e51b815260040161061290613544565b6001600160a01b0382166123485760405162461bcd60e51b8152602060048201526024808201527f4552433732313a207472616e7366657220746f20746865207a65726f206164646044820152637265737360e01b6064820152608401610612565b6123558383836001612937565b826001600160a01b03166123688261107b565b6001600160a01b03161461238e5760405162461bcd60e51b815260040161061290613544565b600081815260046020908152604080832080546001600160a01b03199081169091556001600160a01b0387811680865260038552838620805460001901905590871680865283862080546001019055868652600290945282852080549092168417909155905184937fddf252ad1be2c89b69c2b068fc378daa952ba7f163c4a11628f55a4df523b3ef91a4505050565b6001600160a01b0382166124745760405162461bcd60e51b815260206004820181905260248201527f4552433732313a206d696e7420746f20746865207a65726f20616464726573736044820152606401610612565b6000818152600260205260409020546001600160a01b0316156124d95760405162461bcd60e51b815260206004820152601c60248201527f4552433732313a20746f6b656e20616c7265616479206d696e746564000000006044820152606401610612565b6124e7600083836001612937565b6000818152600260205260409020546001600160a01b03161561254c5760405162461bcd60e51b815260206004820152601c60248201527f4552433732313a20746f6b656e20616c7265616479206d696e746564000000006044820152606401610612565b6001600160a01b038216600081815260036020908152604080832080546001019055848352600290915280822080546001600160a01b0319168417905551839291907fddf252ad1be2c89b69c2b068fc378daa952ba7f163c4a11628f55a4df523b3ef908290a45050565b6000828152600260205260409020546001600160a01b03166126325760405162461bcd60e51b815260206004820152602e60248201527f45524337323155524953746f726167653a2055524920736574206f66206e6f6e60448201526d32bc34b9ba32b73a103a37b5b2b760911b6064820152608401610612565b600082815260066020908152604090912082516106b392840190612d67565b6007546001600160a01b031633146111735760405162461bcd60e51b815260206004820181905260248201527f4f776e61626c653a2063616c6c6572206973206e6f7420746865206f776e65726044820152606401610612565b600780546001600160a01b038381166001600160a01b0319831681179093556040519116919082907f8be0079c531659141344cd1fd0a4f28419497f9722a3daafe3b4186f6b6457e090600090a35050565b600061270860095490565b9050612718600980546001019055565b61272283826129bf565b6106b381836125b7565b816001600160a01b0316836001600160a01b0316141561278e5760405162461bcd60e51b815260206004820152601960248201527f4552433732313a20617070726f766520746f2063616c6c6572000000000000006044820152606401610612565b6001600160a01b03838116600081815260056020908152604080832094871680845294825291829020805460ff191686151590811790915591519182527f17307eab39ab6107e8899845ad3d59bd9653f200f220920489ca2b5937696c31910160405180910390a3505050565b6128068484846122ad565b612812848484846129d9565b611bec5760405162461bcd60e51b815260040161061290613589565b606061283982612161565b600082815260066020526040812080546128529061338b565b80601f016020809104026020016040519081016040528092919081815260200182805461287e9061338b565b80156128cb5780601f106128a0576101008083540402835291602001916128cb565b820191906000526020600020905b8154815290600101906020018083116128ae57829003601f168201915b5050505050905060006128e960408051602081019091526000815290565b90508051600014156128fc575092915050565b81511561292e5780826040516020016129169291906135db565b60405160208183030381529060405292505050919050565b6122a584612ae6565b6001811115611bec576001600160a01b0384161561297d576001600160a01b0384166000908152600360205260408120805483929061297790849061344b565b90915550505b6001600160a01b03831615611bec576001600160a01b038316600090815260036020526040812080548392906129b4908490613508565b909155505050505050565b611bb6828260405180602001604052806000815250612b5a565b60006001600160a01b0384163b15612adb57604051630a85bd0160e11b81526001600160a01b0385169063150b7a0290612a1d903390899088908890600401613601565b602060405180830381600087803b158015612a3757600080fd5b505af1925050508015612a67575060408051601f3d908101601f19168201909252612a649181019061363e565b60015b612ac1573d808015612a95576040519150601f19603f3d011682016040523d82523d6000602084013e612a9a565b606091505b508051612ab95760405162461bcd60e51b815260040161061290613589565b805181602001fd5b6001600160e01b031916630a85bd0160e11b1490506122a5565b506001949350505050565b6060612af182612161565b6000612b0860408051602081019091526000815290565b90506000815111612b285760405180602001604052806000815250612b53565b80612b3284612b8d565b604051602001612b439291906135db565b6040516020818303038152906040525b9392505050565b612b64838361241e565b612b7160008484846129d9565b6106b35760405162461bcd60e51b815260040161061290613589565b60606000612b9a83612c2a565b600101905060008167ffffffffffffffff811115612bba57612bba61306c565b6040519080825280601f01601f191660200182016040528015612be4576020820181803683370190505b5090508181016020015b600019016f181899199a1a9b1b9c1cb0b131b232b360811b600a86061a8153600a8504945084612c1d57612c22565b612bee565b509392505050565b60008072184f03e93ff9f4daa797ed6e38ed64bf6a1f0160401b8310612c695772184f03e93ff9f4daa797ed6e38ed64bf6a1f0160401b830492506040015b6d04ee2d6d415b85acef81000000008310612c95576d04ee2d6d415b85acef8100000000830492506020015b662386f26fc100008310612cb357662386f26fc10000830492506010015b6305f5e1008310612ccb576305f5e100830492506008015b6127108310612cdf57612710830492506004015b60648310612cf1576064830492506002015b600a83106104de5760010192915050565b60405180610160016040528060006001600160a01b031681526020016060815260200160608152602001606081526020016000815260200160008152602001600081526020016000815260200160008152602001600015158152602001600081525090565b828054612d739061338b565b90600052602060002090601f016020900481019282612d955760008555612ddb565b82601f10612dae57805160ff1916838001178555612ddb565b82800160010185558215612ddb579182015b82811115612ddb578251825591602001919060010190612dc0565b50612de7929150612deb565b5090565b5b80821115612de75760008155600101612dec565b6001600160e01b03198116811461210e57600080fd5b600060208284031215612e2857600080fd5b8135612b5381612e00565b60005b83811015612e4e578181015183820152602001612e36565b83811115611bec5750506000910152565b60008151808452612e77816020860160208601612e33565b601f01601f19169290920160200192915050565b602081526000612b536020830184612e5f565b600060208284031215612eb057600080fd5b5035919050565b80356001600160a01b0381168114612ece57600080fd5b919050565b60008060408385031215612ee657600080fd5b612eef83612eb7565b946020939093013593505050565b80516001600160a01b0316825260006101606020830151816020860152612f2682860182612e5f565b91505060408301518482036040860152612f408282612e5f565b91505060608301518482036060860152612f5a8282612e5f565b9150506080830151608085015260a083015160a085015260c083015160c085015260e083015160e085015261010080840151818601525061012080840151612fa58287018215159052565b5050610140928301519390920192909252919050565b602081526000612b536020830184612efd565b600080600060608486031215612fe357600080fd5b612fec84612eb7565b9250612ffa60208501612eb7565b9150604084013590509250925092565b6000602080830181845280855180835260408601915060408160051b870101925083870160005b8281101561305f57603f1988860301845261304d858351612efd565b94509285019290850190600101613031565b5092979650505050505050565b634e487b7160e01b600052604160045260246000fd5b600067ffffffffffffffff8084111561309d5761309d61306c565b604051601f8501601f19908116603f011681019082821181831017156130c5576130c561306c565b816040528093508581528686860111156130de57600080fd5b858560208301376000602087830101525050509392505050565b600082601f83011261310957600080fd5b612b5383833560208501613082565b60008060008060008060c0878903121561313157600080fd5b863567ffffffffffffffff8082111561314957600080fd5b6131558a838b016130f8565b9750602089013591508082111561316b57600080fd5b6131778a838b016130f8565b9650604089013591508082111561318d57600080fd5b5061319a89828a016130f8565b945050606087013592506080870135915060a087013590509295509295509295565b6000602082840312156131ce57600080fd5b612b5382612eb7565b6080815260006131ea6080830187612e5f565b85602084015282810360408401526132028186612e5f565b91505082606083015295945050505050565b6000806040838503121561322757600080fd5b61323083612eb7565b91506020830135801515811461324557600080fd5b809150509250929050565b6000806000806080858703121561326657600080fd5b61326f85612eb7565b935061327d60208601612eb7565b925060408501359150606085013567ffffffffffffffff8111156132a057600080fd5b8501601f810187136132b157600080fd5b6132c087823560208401613082565b91505092959194509250565b600080604083850312156132df57600080fd5b6132e883612eb7565b91506132f660208401612eb7565b90509250929050565b6001600160a01b038c168152610160602082018190526000906133248382018e612e5f565b90508281036040840152613338818d612e5f565b9050828103606084015261334c818c612e5f565b608084019a909a52505060a081019690965260c086019490945260e0850192909252610100840152151561012083015261014090910152949350505050565b600181811c9082168061339f57607f821691505b602082108114156133c057634e487b7160e01b600052602260045260246000fd5b50919050565b602080825260149082015273151bdad95b88191bd95cc81b9bdd08195e1a5cdd60621b604082015260600190565b634e487b7160e01b600052601160045260246000fd5b6000816000190483118215151615613424576134246133f4565b500290565b60008261344657634e487b7160e01b600052601260045260246000fd5b500490565b60008282101561345d5761345d6133f4565b500390565b6020808252602d908201527f4552433732313a2063616c6c6572206973206e6f7420746f6b656e206f776e6560408201526c1c881bdc88185c1c1c9bdd9959609a1b606082015260800190565b600063ffffffff8083168185168083038211156134ce576134ce6133f4565b01949350505050565b60006000198214156134eb576134eb6133f4565b5060010190565b634e487b7160e01b600052603260045260246000fd5b6000821982111561351b5761351b6133f4565b500190565b6000806040838503121561353357600080fd5b505080516020909101519092909150565b60208082526025908201527f4552433732313a207472616e736665722066726f6d20696e636f72726563742060408201526437bbb732b960d91b606082015260800190565b60208082526032908201527f4552433732313a207472616e7366657220746f206e6f6e20455243373231526560408201527131b2b4bb32b91034b6b83632b6b2b73a32b960711b606082015260800190565b600083516135ed818460208801612e33565b8351908301906134ce818360208801612e33565b6001600160a01b038581168252841660208201526040810183905260806060820181905260009061363490830184612e5f565b9695505050505050565b60006020828403121561365057600080fd5b8151612b5381612e0056fea26469706673582212207cc9a333b57fd2c550fa0e16eb0deef2b60f40ce8e1b1f1b6fd71fa22addfbc164736f6c63430008090033",
"linkReferences": {}
},
"methodIdentifiers": {
"approve(address,uint256)": "095ea7b3",
"balanceOf(address)": "70a08231",
"buyEventTicket(uint256)": "74a4ac63",
"createEvent(string,string,string,uint256,uint256,uint256)": "492a9271",
"eventPurchased(address,uint256)": "f08a491e",
"getAllEvents()": "c27a500d",
"getApproved(uint256)": "081812fc",
"getFeePercentage(uint256)": "20af4a89",
"getMyEvents()": "3548124b",
"getOneEvent(uint256)": "10241a44",
"isApprovedForAll(address,address)": "e985e9c5",
"name()": "06fdde03",
"owner()": "8da5cb5b",
"ownerOf(uint256)": "6352211e",
"renounceOwnership()": "715018a6",
"safeTransferFrom(address,address,uint256)": "42842e0e",
"safeTransferFrom(address,address,uint256,bytes)": "b88d4fde",
"setApprovalForAll(address,bool)": "a22cb465",
"supportsInterface(bytes4)": "01ffc9a7",
"symbol()": "95d89b41",
"tokenURI(uint256)": "c87b56dd",
"transferFrom(address,address,uint256)": "23b872dd",
"transferOwnership(address)": "f2fde38b",
"withdrawAmountFromTicketSale(uint256)": "7fe0a186"
},
"id": 15
}