{
"abi": [
{
"inputs": [],
"stateMutability": "nonpayable",
"type": "constructor"
},
{
"inputs": [
{
"internalType": "string",
"name": "",
"type": "string"
}
],
"name": "IncompleteWithdrawCriteria",
"type": "error"
},
{
"inputs": [
{
"internalType": "string",
"name": "",
"type": "string"
}
],
"name": "InvalidPurchasePrice",
"type": "error"
},
{
"anonymous": false,
"inputs": [
{
"indexed": true,
"internalType": "address",
"name": "owner",
"type": "address"
},
{
"indexed": true,
"internalType": "address",
"name": "approved",
"type": "address"
},
{
"indexed": true,
"internalType": "uint256",
"name": "tokenId",
"type": "uint256"
}
],
"name": "Approval",
"type": "event"
},
{
"anonymous": false,
"inputs": [
{
"indexed": true,
"internalType": "address",
"name": "owner",
"type": "address"
},
{
"indexed": true,
"internalType": "address",
"name": "operator",
"type": "address"
},
{
"indexed": false,
"internalType": "bool",
"name": "approved",
"type": "bool"
}
],
"name": "ApprovalForAll",
"type": "event"
},
{
"anonymous": false,
"inputs": [
{
"indexed": true,
"internalType": "address",
"name": "previousOwner",
"type": "address"
},
{
"indexed": true,
"internalType": "address",
"name": "newOwner",
"type": "address"
}
],
"name": "OwnershipTransferred",
"type": "event"
},
{
"anonymous": false,
"inputs": [
{
"indexed": true,
"internalType": "address",
"name": "from",
"type": "address"
},
{
"indexed": true,
"internalType": "address",
"name": "to",
"type": "address"
},
{
"indexed": true,
"internalType": "uint256",
"name": "tokenId",
"type": "uint256"
}
],
"name": "Transfer",
"type": "event"
},
{
"inputs": [
{
"internalType": "address",
"name": "to",
"type": "address"
},
{
"internalType": "uint256",
"name": "tokenId",
"type": "uint256"
}
],
"name": "approve",
"outputs": [],
"stateMutability": "nonpayable",
"type": "function"
},
{
"inputs": [
{
"internalType": "address",
"name": "owner",
"type": "address"
}
],
"name": "balanceOf",
"outputs": [
{
"internalType": "uint256",
"name": "",
"type": "uint256"
}
],
"stateMutability": "view",
"type": "function"
},
{
"inputs": [
{
"internalType": "uint256",
"name": "_tokenId",
"type": "uint256"
}
],
"name": "buyEventTicket",
"outputs": [],
"stateMutability": "payable",
"type": "function"
},
{
"inputs": [
{
"internalType": "string",
"name": "eventTitle",
"type": "string"
},
{
"internalType": "string",
"name": "eventDescription",
"type": "string"
},
{
"internalType": "string",
"name": "eventLocation",
"type": "string"
},
{
"internalType": "string",
"name": "ticketURI",
"type": "string"
},
{
"internalType": "uint256",
"name": "eventDate",
"type": "uint256"
},
{
"internalType": "uint256",
"name": "ticketPrice",
"type": "uint256"
},
{
"internalType": "uint256",
"name": "maxAmountOfSale",
"type": "uint256"
}
],
"name": "createEvent",
"outputs": [
{
"internalType": "uint256",
"name": "",
"type": "uint256"
}
],
"stateMutability": "nonpayable",
"type": "function"
},
{
"inputs": [],
"name": "getAllEvents",
"outputs": [
{
"components": [
{
"internalType": "address",
"name": "OwnerOfTicket",
"type": "address"
},
{
"internalType": "string",
"name": "EventTitle",
"type": "string"
},
{
"internalType": "string",
"name": "EventDescription",
"type": "string"
},
{
"internalType": "string",
"name": "EventLocation",
"type": "string"
},
{
"internalType": "string",
"name": "TicketURI",
"type": "string"
},
{
"internalType": "uint256",
"name": "EventDate",
"type": "uint256"
},
{
"internalType": "uint256",
"name": "TicketPrice",
"type": "uint256"
},
{
"internalType": "uint256",
"name": "NumberOfSale",
"type": "uint256"
},
{
"internalType": "uint256",
"name": "MaxSale",
"type": "uint256"
},
{
"internalType": "uint256",
"name": "totalAmountGottenFromSale",
"type": "uint256"
},
{
"internalType": "bool",
"name": "isCurrentlyListed",
"type": "bool"
}
],
"internalType": "struct EventFlowTicket.ListedEvent[]",
"name": "",
"type": "tuple[]"
}
],
"stateMutability": "view",
"type": "function"
},
{
"inputs": [
{
"internalType": "uint256",
"name": "tokenId",
"type": "uint256"
}
],
"name": "getApproved",
"outputs": [
{
"internalType": "address",
"name": "",
"type": "address"
}
],
"stateMutability": "view",
"type": "function"
},
{
"inputs": [
{
"internalType": "uint256",
"name": "_amount",
"type": "uint256"
}
],
"name": "getFeePercentage",
"outputs": [
{
"internalType": "uint256",
"name": "",
"type": "uint256"
},
{
"internalType": "uint256",
"name": "",
"type": "uint256"
}
],
"stateMutability": "view",
"type": "function"
},
{
"inputs": [],
"name": "getMyEvents",
"outputs": [
{
"components": [
{
"internalType": "address",
"name": "OwnerOfTicket",
"type": "address"
},
{
"internalType": "string",
"name": "EventTitle",
"type": "string"
},
{
"internalType": "string",
"name": "EventDescription",
"type": "string"
},
{
"internalType": "string",
"name": "EventLocation",
"type": "string"
},
{
"internalType": "string",
"name": "TicketURI",
"type": "string"
},
{
"internalType": "uint256",
"name": "EventDate",
"type": "uint256"
},
{
"internalType": "uint256",
"name": "TicketPrice",
"type": "uint256"
},
{
"internalType": "uint256",
"name": "NumberOfSale",
"type": "uint256"
},
{
"internalType": "uint256",
"name": "MaxSale",
"type": "uint256"
},
{
"internalType": "uint256",
"name": "totalAmountGottenFromSale",
"type": "uint256"
},
{
"internalType": "bool",
"name": "isCurrentlyListed",
"type": "bool"
}
],
"internalType": "struct EventFlowTicket.ListedEvent[]",
"name": "myEvents",
"type": "tuple[]"
}
],
"stateMutability": "view",
"type": "function"
},
{
"inputs": [
{
"internalType": "uint256",
"name": "_tokenId",
"type": "uint256"
}
],
"name": "getOneEvent",
"outputs": [
{
"components": [
{
"internalType": "address",
"name": "OwnerOfTicket",
"type": "address"
},
{
"internalType": "string",
"name": "EventTitle",
"type": "string"
},
{
"internalType": "string",
"name": "EventDescription",
"type": "string"
},
{
"internalType": "string",
"name": "EventLocation",
"type": "string"
},
{
"internalType": "string",
"name": "TicketURI",
"type": "string"
},
{
"internalType": "uint256",
"name": "EventDate",
"type": "uint256"
},
{
"internalType": "uint256",
"name": "TicketPrice",
"type": "uint256"
},
{
"internalType": "uint256",
"name": "NumberOfSale",
"type": "uint256"
},
{
"internalType": "uint256",
"name": "MaxSale",
"type": "uint256"
},
{
"internalType": "uint256",
"name": "totalAmountGottenFromSale",
"type": "uint256"
},
{
"internalType": "bool",
"name": "isCurrentlyListed",
"type": "bool"
}
],
"internalType": "struct EventFlowTicket.ListedEvent",
"name": "",
"type": "tuple"
}
],
"stateMutability": "view",
"type": "function"
},
{
"inputs": [
{
"internalType": "address",
"name": "owner",
"type": "address"
},
{
"internalType": "address",
"name": "operator",
"type": "address"
}
],
"name": "isApprovedForAll",
"outputs": [
{
"internalType": "bool",
"name": "",
"type": "bool"
}
],
"stateMutability": "view",
"type": "function"
},
{
"inputs": [],
"name": "name",
"outputs": [
{
"internalType": "string",
"name": "",
"type": "string"
}
],
"stateMutability": "view",
"type": "function"
},
{
"inputs": [],
"name": "owner",
"outputs": [
{
"internalType": "address",
"name": "",
"type": "address"
}
],
"stateMutability": "view",
"type": "function"
},
{
"inputs": [
{
"internalType": "uint256",
"name": "tokenId",
"type": "uint256"
}
],
"name": "ownerOf",
"outputs": [
{
"internalType": "address",
"name": "",
"type": "address"
}
],
"stateMutability": "view",
"type": "function"
},
{
"inputs": [],
"name": "renounceOwnership",
"outputs": [],
"stateMutability": "nonpayable",
"type": "function"
},
{
"inputs": [
{
"internalType": "address",
"name": "from",
"type": "address"
},
{
"internalType": "address",
"name": "to",
"type": "address"
},
{
"internalType": "uint256",
"name": "tokenId",
"type": "uint256"
}
],
"name": "safeTransferFrom",
"outputs": [],
"stateMutability": "nonpayable",
"type": "function"
},
{
"inputs": [
{
"internalType": "address",
"name": "from",
"type": "address"
},
{
"internalType": "address",
"name": "to",
"type": "address"
},
{
"internalType": "uint256",
"name": "tokenId",
"type": "uint256"
},
{
"internalType": "bytes",
"name": "data",
"type": "bytes"
}
],
"name": "safeTransferFrom",
"outputs": [],
"stateMutability": "nonpayable",
"type": "function"
},
{
"inputs": [
{
"internalType": "address",
"name": "operator",
"type": "address"
},
{
"internalType": "bool",
"name": "approved",
"type": "bool"
}
],
"name": "setApprovalForAll",
"outputs": [],
"stateMutability": "nonpayable",
"type": "function"
},
{
"inputs": [
{
"internalType": "bytes4",
"name": "interfaceId",
"type": "bytes4"
}
],
"name": "supportsInterface",
"outputs": [
{
"internalType": "bool",
"name": "",
"type": "bool"
}
],
"stateMutability": "view",
"type": "function"
},
{
"inputs": [],
"name": "symbol",
"outputs": [
{
"internalType": "string",
"name": "",
"type": "string"
}
],
"stateMutability": "view",
"type": "function"
},
{
"inputs": [
{
"internalType": "uint256",
"name": "tokenId",
"type": "uint256"
}
],
"name": "tokenURI",
"outputs": [
{
"internalType": "string",
"name": "",
"type": "string"
}
],
"stateMutability": "view",
"type": "function"
},
{
"inputs": [
{
"internalType": "address",
"name": "from",
"type": "address"
},
{
"internalType": "address",
"name": "to",
"type": "address"
},
{
"internalType": "uint256",
"name": "tokenId",
"type": "uint256"
}
],
"name": "transferFrom",
"outputs": [],
"stateMutability": "nonpayable",
"type": "function"
},
{
"inputs": [
{
"internalType": "address",
"name": "newOwner",
"type": "address"
}
],
"name": "transferOwnership",
"outputs": [],
"stateMutability": "nonpayable",
"type": "function"
},
{
"inputs": [
{
"internalType": "uint256",
"name": "_tokenId",
"type": "uint256"
}
],
"name": "withdrawAmountFromTicketSale",
"outputs": [
{
"internalType": "string",
"name": "",
"type": "string"
},
{
"internalType": "uint256",
"name": "",
"type": "uint256"
},
{
"internalType": "string",
"name": "",
"type": "string"
},
{
"internalType": "uint256",
"name": "",
"type": "uint256"
}
],
"stateMutability": "nonpayable",
"type": "function"
}
],
"bytecode": {
"object": "0x60806040523480156200001157600080fd5b506040518060400160405280601081526020016f115d995b9d119b1bddc8151a58dad95d60821b8152506040518060400160405280600781526020016611551a58dad95d60ca1b81525081600090816200006c919062000199565b5060016200007b828262000199565b50505062000098620000926200009e60201b60201c565b620000a2565b62000265565b3390565b600780546001600160a01b038381166001600160a01b0319831681179093556040519116919082907f8be0079c531659141344cd1fd0a4f28419497f9722a3daafe3b4186f6b6457e090600090a35050565b634e487b7160e01b600052604160045260246000fd5b600181811c908216806200011f57607f821691505b6020821081036200014057634e487b7160e01b600052602260045260246000fd5b50919050565b601f8211156200019457600081815260208120601f850160051c810160208610156200016f5750805b601f850160051c820191505b8181101562000190578281556001016200017b565b5050505b505050565b81516001600160401b03811115620001b557620001b5620000f4565b620001cd81620001c684546200010a565b8462000146565b602080601f831160018114620002055760008415620001ec5750858301515b600019600386901b1c1916600185901b17855562000190565b600085815260208120601f198616915b82811015620002365788860151825594840194600190910190840162000215565b5085821015620002555787850151600019600388901b60f8161c191681555b5050505050600190811b01905550565b61326880620002756000396000f3fe6080604052600436106101405760003560e01c8063715018a6116100b6578063b3be7f011161006f578063b3be7f01146103b3578063b88d4fde146103d3578063c27a500d146103f3578063c87b56dd14610408578063e985e9c514610428578063f2fde38b1461044857600080fd5b8063715018a61461030857806374a4ac631461031d5780637fe0a186146103305780638da5cb5b1461036057806395d89b411461037e578063a22cb4651461039357600080fd5b806320af4a891161010857806320af4a891461022357806323b872dd146102585780633548124b1461027857806342842e0e1461029a5780636352211e146102ba57806370a08231146102da57600080fd5b806301ffc9a71461014557806306fdde031461017a578063081812fc1461019c578063095ea7b3146101d457806310241a44146101f6575b600080fd5b34801561015157600080fd5b5061016561016036600461294e565b610468565b60405190151581526020015b60405180910390f35b34801561018657600080fd5b5061018f610479565b60405161017191906129bb565b3480156101a857600080fd5b506101bc6101b73660046129ce565b61050b565b6040516001600160a01b039091168152602001610171565b3480156101e057600080fd5b506101f46101ef366004612a03565b610532565b005b34801561020257600080fd5b506102166102113660046129ce565b61064c565b6040516101719190612afb565b34801561022f57600080fd5b5061024361023e3660046129ce565b610933565b60408051928352602083019190915201610171565b34801561026457600080fd5b506101f4610273366004612b0e565b6109b2565b34801561028457600080fd5b5061028d6109e3565b6040516101719190612b4a565b3480156102a657600080fd5b506101f46102b5366004612b0e565b610e20565b3480156102c657600080fd5b506101bc6102d53660046129ce565b610e3b565b3480156102e657600080fd5b506102fa6102f5366004612bac565b610e9b565b604051908152602001610171565b34801561031457600080fd5b506101f4610f21565b6101f461032b3660046129ce565b610f35565b34801561033c57600080fd5b5061035061034b3660046129ce565b611294565b6040516101719493929190612bc7565b34801561036c57600080fd5b506007546001600160a01b03166101bc565b34801561038a57600080fd5b5061018f61163a565b34801561039f57600080fd5b506101f46103ae366004612c04565b611649565b3480156103bf57600080fd5b506102fa6103ce366004612cec565b611658565b3480156103df57600080fd5b506101f46103ee366004612db4565b611932565b3480156103ff57600080fd5b5061028d61196a565b34801561041457600080fd5b5061018f6104233660046129ce565b611c6f565b34801561043457600080fd5b50610165610443366004612e30565b611c7a565b34801561045457600080fd5b506101f4610463366004612bac565b611ca8565b600061047382611d21565b92915050565b60606000805461048890612e63565b80601f01602080910402602001604051908101604052809291908181526020018280546104b490612e63565b80156105015780601f106104d657610100808354040283529160200191610501565b820191906000526020600020905b8154815290600101906020018083116104e457829003601f168201915b5050505050905090565b600061051682611d71565b506000908152600460205260409020546001600160a01b031690565b600061053d82610e3b565b9050806001600160a01b0316836001600160a01b0316036105af5760405162461bcd60e51b815260206004820152602160248201527f4552433732313a20617070726f76616c20746f2063757272656e74206f776e656044820152603960f91b60648201526084015b60405180910390fd5b336001600160a01b03821614806105cb57506105cb8133611c7a565b61063d5760405162461bcd60e51b815260206004820152603d60248201527f4552433732313a20617070726f76652063616c6c6572206973206e6f7420746f60448201527f6b656e206f776e6572206f7220617070726f76656420666f7220616c6c00000060648201526084016105a6565b6106478383611dd0565b505050565b6106546128d3565b6009548211156106765760405162461bcd60e51b81526004016105a690612e9d565b6000828152600a60209081526040918290208251610160810190935280546001600160a01b0316835260018101805491928401916106b390612e63565b80601f01602080910402602001604051908101604052809291908181526020018280546106df90612e63565b801561072c5780601f106107015761010080835404028352916020019161072c565b820191906000526020600020905b81548152906001019060200180831161070f57829003601f168201915b5050505050815260200160028201805461074590612e63565b80601f016020809104026020016040519081016040528092919081815260200182805461077190612e63565b80156107be5780601f10610793576101008083540402835291602001916107be565b820191906000526020600020905b8154815290600101906020018083116107a157829003601f168201915b505050505081526020016003820180546107d790612e63565b80601f016020809104026020016040519081016040528092919081815260200182805461080390612e63565b80156108505780601f1061082557610100808354040283529160200191610850565b820191906000526020600020905b81548152906001019060200180831161083357829003601f168201915b5050505050815260200160048201805461086990612e63565b80601f016020809104026020016040519081016040528092919081815260200182805461089590612e63565b80156108e25780601f106108b7576101008083540402835291602001916108e2565b820191906000526020600020905b8154815290600101906020018083116108c557829003601f168201915b505050918352505060058201546020820152600682015460408201526007820154606082015260088201546080820152600982015460a0820152600a9091015460ff16151560c09091015292915050565b60085460009081906001600160a01b0316331461097e5760405162461bcd60e51b81526020600482015260096024820152682737ba1037bbb732b960b91b60448201526064016105a6565b600061271061098e8560b6612ee1565b6109989190612ef8565b905060006109a68286612f1a565b91959194509092505050565b6109bc3382611e3e565b6109d85760405162461bcd60e51b81526004016105a690612f2d565b610647838383611e9d565b600b5460609060009067ffffffffffffffff811115610a0457610a04612c40565b604051908082528060200260200182016040528015610a3d57816020015b610a2a6128d3565b815260200190600190039081610a225790505b50905060008060005b8351811015610a8f576000818152600a6020526040902054336001600160a01b0390911603610a7d57610a7a600184612f7a565b92505b80610a8781612f9e565b915050610a46565b508163ffffffff1667ffffffffffffffff811115610aaf57610aaf612c40565b604051908082528060200260200182016040528015610ae857816020015b610ad56128d3565b815260200190600190039081610acd5790505b50935060005b8451811015610e19576000818152600a6020526040902054336001600160a01b0390911603610e07576000818152600a60209081526040918290208251610160810190935280546001600160a01b0316835260018101805491939284929084019190610b5990612e63565b80601f0160208091040260200160405190810160405280929190818152602001828054610b8590612e63565b8015610bd25780601f10610ba757610100808354040283529160200191610bd2565b820191906000526020600020905b815481529060010190602001808311610bb557829003601f168201915b50505050508152602001600282018054610beb90612e63565b80601f0160208091040260200160405190810160405280929190818152602001828054610c1790612e63565b8015610c645780601f10610c3957610100808354040283529160200191610c64565b820191906000526020600020905b815481529060010190602001808311610c4757829003601f168201915b50505050508152602001600382018054610c7d90612e63565b80601f0160208091040260200160405190810160405280929190818152602001828054610ca990612e63565b8015610cf65780601f10610ccb57610100808354040283529160200191610cf6565b820191906000526020600020905b815481529060010190602001808311610cd957829003601f168201915b50505050508152602001600482018054610d0f90612e63565b80601f0160208091040260200160405190810160405280929190818152602001828054610d3b90612e63565b8015610d885780601f10610d5d57610100808354040283529160200191610d88565b820191906000526020600020905b815481529060010190602001808311610d6b57829003601f168201915b505050918352505060058201546020820152600682015460408201526007820154606082015260088201546080820152600982015460a0820152600a9091015460ff16151560c0909101528651879063ffffffff8616908110610ded57610ded612fb7565b6020908102919091010152610e03600184612f7a565b9250505b80610e1181612f9e565b915050610aee565b5050505090565b61064783838360405180602001604052806000815250611932565b6000818152600260205260408120546001600160a01b0316806104735760405162461bcd60e51b8152602060048201526018602482015277115490cdcc8c4e881a5b9d985b1a59081d1bdad95b88125160421b60448201526064016105a6565b60006001600160a01b038216610f055760405162461bcd60e51b815260206004820152602960248201527f4552433732313a2061646472657373207a65726f206973206e6f7420612076616044820152683634b21037bbb732b960b91b60648201526084016105a6565b506001600160a01b031660009081526003602052604090205490565b610f2961200e565b610f336000612068565b565b600954811115610f575760405162461bcd60e51b81526004016105a690612e9d565b6000818152600a6020526040812080546008820154600683015460058401546007850154600490950180546001600160a01b039095169693959294919391610f9e90612e63565b80601f0160208091040260200160405190810160405280929190818152602001828054610fca90612e63565b80156110175780601f10610fec57610100808354040283529160200191611017565b820191906000526020600020905b815481529060010190602001808311610ffa57829003601f168201915b50505060008a8152600a6020819052604090912001549293505060ff90911690506110785760405162461bcd60e51b8152602060048201526011602482015270151a58dad95d081cd85b1948195b991959607a1b60448201526064016105a6565b8482106110c75760405162461bcd60e51b815260206004820152601e60248201527f546f74616c20737570706c79206f66207469636b65742072656163686564000060448201526064016105a6565b833414611150576040516306844a6f60e11b815260206004820152604a60248201527f4572726f723a20506c65617365207375626d6974207468652061736b696e672060448201527f707269636520696e206f7264657220746f20636f6d706c657465207469636b656064820152697420707572636861736560b01b608482015260a4016105a6565b6001600160a01b03861661119e5760405162461bcd60e51b8152602060048201526015602482015274115c9c9bdc8e88125b9d985b1a5908151a58dad95d605a1b60448201526064016105a6565b8242106111e55760405162461bcd60e51b8152602060048201526015602482015274115c9c9bdc8e88151a58dad95d08195e1c1a5c9959605a1b60448201526064016105a6565b6001600b88815481106111fa576111fa612fb7565b90600052602060002090600b0201600701600082825461121a9190612fcd565b9250508190555034600b888154811061123557611235612fb7565b90600052602060002090600b020160090160008282546112559190612fcd565b90915550506000878152600a60205260408120600901805434929061127b908490612fcd565b9091555061128b905033826120ba565b50505050505050565b6000818152600a602052604081205460609190829082906001600160a01b03163381146112f55760405162461bcd60e51b815260206004820152600f60248201526e2737ba1032bb32b73a1037bbb732b960891b60448201526064016105a6565b6009548611156113175760405162461bcd60e51b81526004016105a690612e9d565b6000868152600a60208190526040909120015460ff1661136d5760405162461bcd60e51b8152602060048201526011602482015270151a58dad95d081cd85b1948195b991959607a1b60448201526064016105a6565b6000868152600a60208190526040909120908101805460ff19169055600901546001600160a01b0382166113db5760405162461bcd60e51b8152602060048201526015602482015274115c9c9bdc8e88125b9d985b1a5908151a58dad95d605a1b60448201526064016105a6565b600081116114425760405162461bcd60e51b815260206004820152602e60248201527f4572726f723a204e6f207469636b65742073616c65207965742c206e6f74686960448201526d6e6720746f20776974686472617760901b60648201526084016105a6565b6040516320af4a8960e01b815260048101829052600090819030906320af4a89906024016040805180830381865afa158015611482573d6000803e3d6000fd5b505050506040513d601f19601f820116820180604052508101906114a69190612fe0565b6008546040519294509092506000916001600160a01b039091169084908381818185875af1925050503d80600081146114fb576040519150601f19603f3d011682016040523d82523d6000602084013e611500565b606091505b505090506000856001600160a01b03168360405160006040518083038185875af1925050503d8060008114611551576040519150601f19603f3d011682016040523d82523d6000602084013e611556565b606091505b50509050816115985760405162461bcd60e51b815260206004820152600e60248201526d11985a5b1959081d1bc81cd95b9960921b60448201526064016105a6565b806115d65760405162461bcd60e51b815260206004820152600e60248201526d11985a5b1959081d1bc81cd95b9960921b60448201526064016105a6565b5050604080518082018252600881526727bab9103332b29d60c11b6020808301919091528251808401909352601c83527f416d6f756e742073656e7420746f206576656e742063726561746f7200000000908301529a929950975095509350505050565b60606001805461048890612e63565b6116543383836120e9565b5050565b60008061166460095490565b905060006116728642612fcd565b9050600061168886670de0b6b3a7640000612ee1565b905061169433896120ba565b61169f333085611e9d565b604080516101608101825233815260208082018e81528284018e9052606083018d9052608083018c905260a0830186905260c08301859052600060e0840181905261010084018a9052610120840181905260016101408501819052888252600a90935293909320825181546001600160a01b0319166001600160a01b039091161781559251919291908201906117359082613052565b506040820151600282019061174a9082613052565b506060820151600382019061175f9082613052565b50608082015160048201906117749082613052565b5060a0820151816005015560c0820151816006015560e082015181600701556101008201518160080155610120820151816009015561014082015181600a0160006101000a81548160ff021916908315150217905550905050600b604051806101600160405280336001600160a01b031681526020018d81526020018c81526020018b81526020018a815260200189815260200183815260200160008152602001878152602001600081526020016001151581525090806001815401808255809150506001900390600052602060002090600b020160009091909190915060008201518160000160006101000a8154816001600160a01b0302191690836001600160a01b0316021790555060208201518160010190816118949190613052565b50604082015160028201906118a99082613052565b50606082015160038201906118be9082613052565b50608082015160048201906118d39082613052565b5060a0820151600582015560c0820151600682015560e082015160078201556101008201516008820155610120820151600982015561014090910151600a909101805460ff191691151591909117905550909998505050505050505050565b61193c3383611e3e565b6119585760405162461bcd60e51b81526004016105a690612f2d565b611964848484846121b7565b50505050565b6060600b805480602002602001604051908101604052809291908181526020016000905b82821015611c66576000848152602090819020604080516101608101909152600b850290910180546001600160a01b0316825260018101805492939192918401916119d890612e63565b80601f0160208091040260200160405190810160405280929190818152602001828054611a0490612e63565b8015611a515780601f10611a2657610100808354040283529160200191611a51565b820191906000526020600020905b815481529060010190602001808311611a3457829003601f168201915b50505050508152602001600282018054611a6a90612e63565b80601f0160208091040260200160405190810160405280929190818152602001828054611a9690612e63565b8015611ae35780601f10611ab857610100808354040283529160200191611ae3565b820191906000526020600020905b815481529060010190602001808311611ac657829003601f168201915b50505050508152602001600382018054611afc90612e63565b80601f0160208091040260200160405190810160405280929190818152602001828054611b2890612e63565b8015611b755780601f10611b4a57610100808354040283529160200191611b75565b820191906000526020600020905b815481529060010190602001808311611b5857829003601f168201915b50505050508152602001600482018054611b8e90612e63565b80601f0160208091040260200160405190810160405280929190818152602001828054611bba90612e63565b8015611c075780601f10611bdc57610100808354040283529160200191611c07565b820191906000526020600020905b815481529060010190602001808311611bea57829003601f168201915b50505091835250506005820154602080830191909152600683015460408301526007830154606083015260088301546080830152600983015460a0830152600a9092015460ff16151560c090910152908252600192909201910161198e565b50505050905090565b6060610473826121ea565b6001600160a01b03918216600090815260056020908152604080832093909416825291909152205460ff1690565b611cb061200e565b6001600160a01b038116611d155760405162461bcd60e51b815260206004820152602660248201527f4f776e61626c653a206e6577206f776e657220697320746865207a65726f206160448201526564647265737360d01b60648201526084016105a6565b611d1e81612068565b50565b60006001600160e01b031982166380ac58cd60e01b1480611d5257506001600160e01b03198216635b5e139f60e01b145b8061047357506301ffc9a760e01b6001600160e01b0319831614610473565b6000818152600260205260409020546001600160a01b0316611d1e5760405162461bcd60e51b8152602060048201526018602482015277115490cdcc8c4e881a5b9d985b1a59081d1bdad95b88125160421b60448201526064016105a6565b600081815260046020526040902080546001600160a01b0319166001600160a01b0384169081179091558190611e0582610e3b565b6001600160a01b03167f8c5be1e5ebec7d5bd14f71427d1e84f3dd0314c0f7b2291e5b200ac8c7c3b92560405160405180910390a45050565b600080611e4a83610e3b565b9050806001600160a01b0316846001600160a01b03161480611e715750611e718185611c7a565b80611e955750836001600160a01b0316611e8a8461050b565b6001600160a01b0316145b949350505050565b826001600160a01b0316611eb082610e3b565b6001600160a01b031614611ed65760405162461bcd60e51b81526004016105a690613112565b6001600160a01b038216611f385760405162461bcd60e51b8152602060048201526024808201527f4552433732313a207472616e7366657220746f20746865207a65726f206164646044820152637265737360e01b60648201526084016105a6565b611f4583838360016122f2565b826001600160a01b0316611f5882610e3b565b6001600160a01b031614611f7e5760405162461bcd60e51b81526004016105a690613112565b600081815260046020908152604080832080546001600160a01b03199081169091556001600160a01b0387811680865260038552838620805460001901905590871680865283862080546001019055868652600290945282852080549092168417909155905184937fddf252ad1be2c89b69c2b068fc378daa952ba7f163c4a11628f55a4df523b3ef91a4505050565b6007546001600160a01b03163314610f335760405162461bcd60e51b815260206004820181905260248201527f4f776e61626c653a2063616c6c6572206973206e6f7420746865206f776e657260448201526064016105a6565b600780546001600160a01b038381166001600160a01b0319831681179093556040519116919082907f8be0079c531659141344cd1fd0a4f28419497f9722a3daafe3b4186f6b6457e090600090a35050565b60006120c560095490565b90506120d5600980546001019055565b6120df838261237a565b6106478183612394565b816001600160a01b0316836001600160a01b03160361214a5760405162461bcd60e51b815260206004820152601960248201527f4552433732313a20617070726f766520746f2063616c6c65720000000000000060448201526064016105a6565b6001600160a01b03838116600081815260056020908152604080832094871680845294825291829020805460ff191686151590811790915591519182527f17307eab39ab6107e8899845ad3d59bd9653f200f220920489ca2b5937696c31910160405180910390a3505050565b6121c2848484611e9d565b6121ce84848484612427565b6119645760405162461bcd60e51b81526004016105a690613157565b60606121f582611d71565b6000828152600660205260408120805461220e90612e63565b80601f016020809104026020016040519081016040528092919081815260200182805461223a90612e63565b80156122875780601f1061225c57610100808354040283529160200191612287565b820191906000526020600020905b81548152906001019060200180831161226a57829003601f168201915b5050505050905060006122a560408051602081019091526000815290565b905080516000036122b7575092915050565b8151156122e95780826040516020016122d19291906131a9565b60405160208183030381529060405292505050919050565b611e9584612528565b6001811115611964576001600160a01b03841615612338576001600160a01b03841660009081526003602052604081208054839290612332908490612f1a565b90915550505b6001600160a01b03831615611964576001600160a01b0383166000908152600360205260408120805483929061236f908490612fcd565b909155505050505050565b61165482826040518060200160405280600081525061259c565b6000828152600260205260409020546001600160a01b031661240f5760405162461bcd60e51b815260206004820152602e60248201527f45524337323155524953746f726167653a2055524920736574206f66206e6f6e60448201526d32bc34b9ba32b73a103a37b5b2b760911b60648201526084016105a6565b60008281526006602052604090206106478282613052565b60006001600160a01b0384163b1561251d57604051630a85bd0160e11b81526001600160a01b0385169063150b7a029061246b9033908990889088906004016131d8565b6020604051808303816000875af19250505080156124a6575060408051601f3d908101601f191682019092526124a391810190613215565b60015b612503573d8080156124d4576040519150601f19603f3d011682016040523d82523d6000602084013e6124d9565b606091505b5080516000036124fb5760405162461bcd60e51b81526004016105a690613157565b805181602001fd5b6001600160e01b031916630a85bd0160e11b149050611e95565b506001949350505050565b606061253382611d71565b600061254a60408051602081019091526000815290565b9050600081511161256a5760405180602001604052806000815250612595565b80612574846125cf565b6040516020016125859291906131a9565b6040516020818303038152906040525b9392505050565b6125a68383612662565b6125b36000848484612427565b6106475760405162461bcd60e51b81526004016105a690613157565b606060006125dc836127fb565b600101905060008167ffffffffffffffff8111156125fc576125fc612c40565b6040519080825280601f01601f191660200182016040528015612626576020820181803683370190505b5090508181016020015b600019016f181899199a1a9b1b9c1cb0b131b232b360811b600a86061a8153600a850494508461263057509392505050565b6001600160a01b0382166126b85760405162461bcd60e51b815260206004820181905260248201527f4552433732313a206d696e7420746f20746865207a65726f206164647265737360448201526064016105a6565b6000818152600260205260409020546001600160a01b03161561271d5760405162461bcd60e51b815260206004820152601c60248201527f4552433732313a20746f6b656e20616c7265616479206d696e7465640000000060448201526064016105a6565b61272b6000838360016122f2565b6000818152600260205260409020546001600160a01b0316156127905760405162461bcd60e51b815260206004820152601c60248201527f4552433732313a20746f6b656e20616c7265616479206d696e7465640000000060448201526064016105a6565b6001600160a01b038216600081815260036020908152604080832080546001019055848352600290915280822080546001600160a01b0319168417905551839291907fddf252ad1be2c89b69c2b068fc378daa952ba7f163c4a11628f55a4df523b3ef908290a45050565b60008072184f03e93ff9f4daa797ed6e38ed64bf6a1f0160401b831061283a5772184f03e93ff9f4daa797ed6e38ed64bf6a1f0160401b830492506040015b6d04ee2d6d415b85acef81000000008310612866576d04ee2d6d415b85acef8100000000830492506020015b662386f26fc10000831061288457662386f26fc10000830492506010015b6305f5e100831061289c576305f5e100830492506008015b61271083106128b057612710830492506004015b606483106128c2576064830492506002015b600a83106104735760010192915050565b60405180610160016040528060006001600160a01b031681526020016060815260200160608152602001606081526020016060815260200160008152602001600081526020016000815260200160008152602001600081526020016000151581525090565b6001600160e01b031981168114611d1e57600080fd5b60006020828403121561296057600080fd5b813561259581612938565b60005b8381101561298657818101518382015260200161296e565b50506000910152565b600081518084526129a781602086016020860161296b565b601f01601f19169290920160200192915050565b602081526000612595602083018461298f565b6000602082840312156129e057600080fd5b5035919050565b80356001600160a01b03811681146129fe57600080fd5b919050565b60008060408385031215612a1657600080fd5b612a1f836129e7565b946020939093013593505050565b80516001600160a01b0316825260006101606020830151816020860152612a568286018261298f565b91505060408301518482036040860152612a70828261298f565b91505060608301518482036060860152612a8a828261298f565b91505060808301518482036080860152612aa4828261298f565b91505060a083015160a085015260c083015160c085015260e083015160e085015261010080840151818601525061012080840151818601525061014080840151612af18287018215159052565b5090949350505050565b6020815260006125956020830184612a2d565b600080600060608486031215612b2357600080fd5b612b2c846129e7565b9250612b3a602085016129e7565b9150604084013590509250925092565b6000602080830181845280855180835260408601915060408160051b870101925083870160005b82811015612b9f57603f19888603018452612b8d858351612a2d565b94509285019290850190600101612b71565b5092979650505050505050565b600060208284031215612bbe57600080fd5b612595826129e7565b608081526000612bda608083018761298f565b8560208401528281036040840152612bf2818661298f565b91505082606083015295945050505050565b60008060408385031215612c1757600080fd5b612c20836129e7565b915060208301358015158114612c3557600080fd5b809150509250929050565b634e487b7160e01b600052604160045260246000fd5b600067ffffffffffffffff80841115612c7157612c71612c40565b604051601f8501601f19908116603f01168101908282118183101715612c9957612c99612c40565b81604052809350858152868686011115612cb257600080fd5b858560208301376000602087830101525050509392505050565b600082601f830112612cdd57600080fd5b61259583833560208501612c56565b600080600080600080600060e0888a031215612d0757600080fd5b873567ffffffffffffffff80821115612d1f57600080fd5b612d2b8b838c01612ccc565b985060208a0135915080821115612d4157600080fd5b612d4d8b838c01612ccc565b975060408a0135915080821115612d6357600080fd5b612d6f8b838c01612ccc565b965060608a0135915080821115612d8557600080fd5b50612d928a828b01612ccc565b979a969950949760808101359660a0820135965060c090910135945092505050565b60008060008060808587031215612dca57600080fd5b612dd3856129e7565b9350612de1602086016129e7565b925060408501359150606085013567ffffffffffffffff811115612e0457600080fd5b8501601f81018713612e1557600080fd5b612e2487823560208401612c56565b91505092959194509250565b60008060408385031215612e4357600080fd5b612e4c836129e7565b9150612e5a602084016129e7565b90509250929050565b600181811c90821680612e7757607f821691505b602082108103612e9757634e487b7160e01b600052602260045260246000fd5b50919050565b602080825260149082015273151bdad95b88191bd95cc81b9bdd08195e1a5cdd60621b604082015260600190565b634e487b7160e01b600052601160045260246000fd5b808202811582820484141761047357610473612ecb565b600082612f1557634e487b7160e01b600052601260045260246000fd5b500490565b8181038181111561047357610473612ecb565b6020808252602d908201527f4552433732313a2063616c6c6572206973206e6f7420746f6b656e206f776e6560408201526c1c881bdc88185c1c1c9bdd9959609a1b606082015260800190565b63ffffffff818116838216019080821115612f9757612f97612ecb565b5092915050565b600060018201612fb057612fb0612ecb565b5060010190565b634e487b7160e01b600052603260045260246000fd5b8082018082111561047357610473612ecb565b60008060408385031215612ff357600080fd5b505080516020909101519092909150565b601f82111561064757600081815260208120601f850160051c8101602086101561302b5750805b601f850160051c820191505b8181101561304a57828155600101613037565b505050505050565b815167ffffffffffffffff81111561306c5761306c612c40565b6130808161307a8454612e63565b84613004565b602080601f8311600181146130b5576000841561309d5750858301515b600019600386901b1c1916600185901b17855561304a565b600085815260208120601f198616915b828110156130e4578886015182559484019460019091019084016130c5565b50858210156131025787850151600019600388901b60f8161c191681555b5050505050600190811b01905550565b60208082526025908201527f4552433732313a207472616e736665722066726f6d20696e636f72726563742060408201526437bbb732b960d91b606082015260800190565b60208082526032908201527f4552433732313a207472616e7366657220746f206e6f6e20455243373231526560408201527131b2b4bb32b91034b6b83632b6b2b73a32b960711b606082015260800190565b600083516131bb81846020880161296b565b8351908301906131cf81836020880161296b565b01949350505050565b6001600160a01b038581168252841660208201526040810183905260806060820181905260009061320b9083018461298f565b9695505050505050565b60006020828403121561322757600080fd5b81516125958161293856fea26469706673582212201dca7e819d7ec1dc3c8ed660c75287a285ecd02a8311e1d3da5718bda971bf7164736f6c63430008110033",
"linkReferences": {}
},
"methodIdentifiers": {
"approve(address,uint256)": "095ea7b3",
"balanceOf(address)": "70a08231",
"buyEventTicket(uint256)": "74a4ac63",
"createEvent(string,string,string,string,uint256,uint256,uint256)": "b3be7f01",
"getAllEvents()": "c27a500d",
"getApproved(uint256)": "081812fc",
"getFeePercentage(uint256)": "20af4a89",
"getMyEvents()": "3548124b",
"getOneEvent(uint256)": "10241a44",
"isApprovedForAll(address,address)": "e985e9c5",
"name()": "06fdde03",
"owner()": "8da5cb5b",
"ownerOf(uint256)": "6352211e",
"renounceOwnership()": "715018a6",
"safeTransferFrom(address,address,uint256)": "42842e0e",
"safeTransferFrom(address,address,uint256,bytes)": "b88d4fde",
"setApprovalForAll(address,bool)": "a22cb465",
"supportsInterface(bytes4)": "01ffc9a7",
"symbol()": "95d89b41",
"tokenURI(uint256)": "c87b56dd",
"transferFrom(address,address,uint256)": "23b872dd",
"transferOwnership(address)": "f2fde38b",
"withdrawAmountFromTicketSale(uint256)": "7fe0a186"
},
"id": 15
}