{
"_format": "hh-sol-artifact-1",
"contractName": "EventFlowTicket",
"sourceName": "contracts/Eventflow.sol",
"abi": [
{
"inputs": [],
"stateMutability": "nonpayable",
"type": "constructor"
},
{
"inputs": [
{
"internalType": "string",
"name": "",
"type": "string"
}
],
"name": "IncompleteWithdrawCriteria",
"type": "error"
},
{
"inputs": [
{
"internalType": "string",
"name": "",
"type": "string"
}
],
"name": "InvalidPurchasePrice",
"type": "error"
},
{
"anonymous": false,
"inputs": [
{
"indexed": true,
"internalType": "address",
"name": "owner",
"type": "address"
},
{
"indexed": true,
"internalType": "address",
"name": "approved",
"type": "address"
},
{
"indexed": true,
"internalType": "uint256",
"name": "tokenId",
"type": "uint256"
}
],
"name": "Approval",
"type": "event"
},
{
"anonymous": false,
"inputs": [
{
"indexed": true,
"internalType": "address",
"name": "owner",
"type": "address"
},
{
"indexed": true,
"internalType": "address",
"name": "operator",
"type": "address"
},
{
"indexed": false,
"internalType": "bool",
"name": "approved",
"type": "bool"
}
],
"name": "ApprovalForAll",
"type": "event"
},
{
"anonymous": false,
"inputs": [
{
"indexed": true,
"internalType": "address",
"name": "from",
"type": "address"
},
{
"indexed": true,
"internalType": "address",
"name": "to",
"type": "address"
},
{
"indexed": true,
"internalType": "uint256",
"name": "tokenId",
"type": "uint256"
}
],
"name": "Transfer",
"type": "event"
},
{
"inputs": [
{
"internalType": "address",
"name": "to",
"type": "address"
},
{
"internalType": "uint256",
"name": "tokenId",
"type": "uint256"
}
],
"name": "approve",
"outputs": [],
"stateMutability": "nonpayable",
"type": "function"
},
{
"inputs": [
{
"internalType": "address",
"name": "owner",
"type": "address"
}
],
"name": "balanceOf",
"outputs": [
{
"internalType": "uint256",
"name": "",
"type": "uint256"
}
],
"stateMutability": "view",
"type": "function"
},
{
"inputs": [
{
"internalType": "uint256",
"name": "_tokenId",
"type": "uint256"
}
],
"name": "buyEventTicket",
"outputs": [],
"stateMutability": "payable",
"type": "function"
},
{
"inputs": [
{
"internalType": "address",
"name": "_addr",
"type": "address"
}
],
"name": "checkPurchase",
"outputs": [
{
"components": [
{
"internalType": "address",
"name": "OwnerOfTicket",
"type": "address"
},
{
"internalType": "string",
"name": "EventTitle",
"type": "string"
},
{
"internalType": "string",
"name": "EventLocation",
"type": "string"
},
{
"internalType": "string",
"name": "TicketURI",
"type": "string"
},
{
"internalType": "uint256",
"name": "EventDate",
"type": "uint256"
},
{
"internalType": "uint256",
"name": "TicketPrice",
"type": "uint256"
},
{
"internalType": "uint256",
"name": "NumberOfSale",
"type": "uint256"
},
{
"internalType": "uint256",
"name": "MaxSale",
"type": "uint256"
},
{
"internalType": "uint256",
"name": "totalAmountGottenFromSale",
"type": "uint256"
},
{
"internalType": "bool",
"name": "isCurrentlyListed",
"type": "bool"
},
{
"internalType": "uint256",
"name": "CreateTokenID",
"type": "uint256"
}
],
"internalType": "struct EventFlowTicket.ListedEvent[]",
"name": "",
"type": "tuple[]"
}
],
"stateMutability": "view",
"type": "function"
},
{
"inputs": [
{
"internalType": "string",
"name": "eventTitle",
"type": "string"
},
{
"internalType": "string",
"name": "eventLocation",
"type": "string"
},
{
"internalType": "string",
"name": "ticketURI",
"type": "string"
},
{
"internalType": "uint256",
"name": "eventDate",
"type": "uint256"
},
{
"internalType": "uint256",
"name": "ticketPrice",
"type": "uint256"
},
{
"internalType": "uint256",
"name": "maxAmountOfSale",
"type": "uint256"
}
],
"name": "createEvent",
"outputs": [],
"stateMutability": "nonpayable",
"type": "function"
},
{
"inputs": [],
"name": "getAllEvents",
"outputs": [
{
"components": [
{
"internalType": "address",
"name": "OwnerOfTicket",
"type": "address"
},
{
"internalType": "string",
"name": "EventTitle",
"type": "string"
},
{
"internalType": "string",
"name": "EventLocation",
"type": "string"
},
{
"internalType": "string",
"name": "TicketURI",
"type": "string"
},
{
"internalType": "uint256",
"name": "EventDate",
"type": "uint256"
},
{
"internalType": "uint256",
"name": "TicketPrice",
"type": "uint256"
},
{
"internalType": "uint256",
"name": "NumberOfSale",
"type": "uint256"
},
{
"internalType": "uint256",
"name": "MaxSale",
"type": "uint256"
},
{
"internalType": "uint256",
"name": "totalAmountGottenFromSale",
"type": "uint256"
},
{
"internalType": "bool",
"name": "isCurrentlyListed",
"type": "bool"
},
{
"internalType": "uint256",
"name": "CreateTokenID",
"type": "uint256"
}
],
"internalType": "struct EventFlowTicket.ListedEvent[]",
"name": "",
"type": "tuple[]"
}
],
"stateMutability": "view",
"type": "function"
},
{
"inputs": [
{
"internalType": "uint256",
"name": "tokenId",
"type": "uint256"
}
],
"name": "getApproved",
"outputs": [
{
"internalType": "address",
"name": "",
"type": "address"
}
],
"stateMutability": "view",
"type": "function"
},
{
"inputs": [
{
"internalType": "uint256",
"name": "_amount",
"type": "uint256"
}
],
"name": "getFeePercentage",
"outputs": [
{
"internalType": "uint256",
"name": "",
"type": "uint256"
},
{
"internalType": "uint256",
"name": "",
"type": "uint256"
}
],
"stateMutability": "view",
"type": "function"
},
{
"inputs": [],
"name": "getMyEvents",
"outputs": [
{
"components": [
{
"internalType": "address",
"name": "OwnerOfTicket",
"type": "address"
},
{
"internalType": "string",
"name": "EventTitle",
"type": "string"
},
{
"internalType": "string",
"name": "EventLocation",
"type": "string"
},
{
"internalType": "string",
"name": "TicketURI",
"type": "string"
},
{
"internalType": "uint256",
"name": "EventDate",
"type": "uint256"
},
{
"internalType": "uint256",
"name": "TicketPrice",
"type": "uint256"
},
{
"internalType": "uint256",
"name": "NumberOfSale",
"type": "uint256"
},
{
"internalType": "uint256",
"name": "MaxSale",
"type": "uint256"
},
{
"internalType": "uint256",
"name": "totalAmountGottenFromSale",
"type": "uint256"
},
{
"internalType": "bool",
"name": "isCurrentlyListed",
"type": "bool"
},
{
"internalType": "uint256",
"name": "CreateTokenID",
"type": "uint256"
}
],
"internalType": "struct EventFlowTicket.ListedEvent[]",
"name": "myEvents",
"type": "tuple[]"
}
],
"stateMutability": "view",
"type": "function"
},
{
"inputs": [
{
"internalType": "uint256",
"name": "_tokenId",
"type": "uint256"
}
],
"name": "getOneEvent",
"outputs": [
{
"components": [
{
"internalType": "address",
"name": "OwnerOfTicket",
"type": "address"
},
{
"internalType": "string",
"name": "EventTitle",
"type": "string"
},
{
"internalType": "string",
"name": "EventLocation",
"type": "string"
},
{
"internalType": "string",
"name": "TicketURI",
"type": "string"
},
{
"internalType": "uint256",
"name": "EventDate",
"type": "uint256"
},
{
"internalType": "uint256",
"name": "TicketPrice",
"type": "uint256"
},
{
"internalType": "uint256",
"name": "NumberOfSale",
"type": "uint256"
},
{
"internalType": "uint256",
"name": "MaxSale",
"type": "uint256"
},
{
"internalType": "uint256",
"name": "totalAmountGottenFromSale",
"type": "uint256"
},
{
"internalType": "bool",
"name": "isCurrentlyListed",
"type": "bool"
},
{
"internalType": "uint256",
"name": "CreateTokenID",
"type": "uint256"
}
],
"internalType": "struct EventFlowTicket.ListedEvent",
"name": "",
"type": "tuple"
}
],
"stateMutability": "view",
"type": "function"
},
{
"inputs": [
{
"internalType": "address",
"name": "owner",
"type": "address"
},
{
"internalType": "address",
"name": "operator",
"type": "address"
}
],
"name": "isApprovedForAll",
"outputs": [
{
"internalType": "bool",
"name": "",
"type": "bool"
}
],
"stateMutability": "view",
"type": "function"
},
{
"inputs": [],
"name": "name",
"outputs": [
{
"internalType": "string",
"name": "",
"type": "string"
}
],
"stateMutability": "view",
"type": "function"
},
{
"inputs": [
{
"internalType": "uint256",
"name": "tokenId",
"type": "uint256"
}
],
"name": "ownerOf",
"outputs": [
{
"internalType": "address",
"name": "",
"type": "address"
}
],
"stateMutability": "view",
"type": "function"
},
{
"inputs": [
{
"internalType": "address",
"name": "from",
"type": "address"
},
{
"internalType": "address",
"name": "to",
"type": "address"
},
{
"internalType": "uint256",
"name": "tokenId",
"type": "uint256"
}
],
"name": "safeTransferFrom",
"outputs": [],
"stateMutability": "nonpayable",
"type": "function"
},
{
"inputs": [
{
"internalType": "address",
"name": "from",
"type": "address"
},
{
"internalType": "address",
"name": "to",
"type": "address"
},
{
"internalType": "uint256",
"name": "tokenId",
"type": "uint256"
},
{
"internalType": "bytes",
"name": "data",
"type": "bytes"
}
],
"name": "safeTransferFrom",
"outputs": [],
"stateMutability": "nonpayable",
"type": "function"
},
{
"inputs": [
{
"internalType": "address",
"name": "operator",
"type": "address"
},
{
"internalType": "bool",
"name": "approved",
"type": "bool"
}
],
"name": "setApprovalForAll",
"outputs": [],
"stateMutability": "nonpayable",
"type": "function"
},
{
"inputs": [
{
"internalType": "bytes4",
"name": "interfaceId",
"type": "bytes4"
}
],
"name": "supportsInterface",
"outputs": [
{
"internalType": "bool",
"name": "",
"type": "bool"
}
],
"stateMutability": "view",
"type": "function"
},
{
"inputs": [],
"name": "symbol",
"outputs": [
{
"internalType": "string",
"name": "",
"type": "string"
}
],
"stateMutability": "view",
"type": "function"
},
{
"inputs": [
{
"internalType": "uint256",
"name": "tokenId",
"type": "uint256"
}
],
"name": "tokenURI",
"outputs": [
{
"internalType": "string",
"name": "",
"type": "string"
}
],
"stateMutability": "view",
"type": "function"
},
{
"inputs": [
{
"internalType": "address",
"name": "from",
"type": "address"
},
{
"internalType": "address",
"name": "to",
"type": "address"
},
{
"internalType": "uint256",
"name": "tokenId",
"type": "uint256"
}
],
"name": "transferFrom",
"outputs": [],
"stateMutability": "nonpayable",
"type": "function"
},
{
"inputs": [
{
"internalType": "uint256",
"name": "_tokenId",
"type": "uint256"
}
],
"name": "withdrawAmountFromTicketSale",
"outputs": [
{
"internalType": "string",
"name": "",
"type": "string"
},
{
"internalType": "uint256",
"name": "",
"type": "uint256"
},
{
"internalType": "string",
"name": "",
"type": "string"
},
{
"internalType": "uint256",
"name": "",
"type": "uint256"
}
],
"stateMutability": "nonpayable",
"type": "function"
}
],
"bytecode": "0x60806040523480156200001157600080fd5b506040518060400160405280601081526020017f4576656e74466c6f77205469636b6574000000000000000000000000000000008152506040518060400160405280600781526020017f455469636b65740000000000000000000000000000000000000000000000000081525081600090816200008f919062000324565b508060019081620000a1919062000324565b5050506200040b565b600081519050919050565b7f4e487b7100000000000000000000000000000000000000000000000000000000600052604160045260246000fd5b7f4e487b7100000000000000000000000000000000000000000000000000000000600052602260045260246000fd5b600060028204905060018216806200012c57607f821691505b602082108103620001425762000141620000e4565b5b50919050565b60008190508160005260206000209050919050565b60006020601f8301049050919050565b600082821b905092915050565b600060088302620001ac7fffffffffffffffffffffffffffffffffffffffffffffffffffffffffffffffff826200016d565b620001b886836200016d565b95508019841693508086168417925050509392505050565b6000819050919050565b6000819050919050565b600062000205620001ff620001f984620001d0565b620001da565b620001d0565b9050919050565b6000819050919050565b6200022183620001e4565b6200023962000230826200020c565b8484546200017a565b825550505050565b600090565b6200025062000241565b6200025d81848462000216565b505050565b5b8181101562000285576200027960008262000246565b60018101905062000263565b5050565b601f821115620002d4576200029e8162000148565b620002a9846200015d565b81016020851015620002b9578190505b620002d1620002c8856200015d565b83018262000262565b50505b505050565b600082821c905092915050565b6000620002f960001984600802620002d9565b1980831691505092915050565b6000620003148383620002e6565b9150826002028217905092915050565b6200032f82620000aa565b67ffffffffffffffff8111156200034b576200034a620000b5565b5b62000357825462000113565b6200036482828562000289565b600060209050601f8311600181146200039c576000841562000387578287015190505b62000393858262000306565b86555062000403565b601f198416620003ac8662000148565b60005b82811015620003d657848901518255600182019150602085019450602081019050620003af565b86831015620003f65784890151620003f2601f891682620002e6565b8355505b6001600288020188555050505b505050505050565b61575d806200041b6000396000f3fe60806040526004361061012a5760003560e01c80636352211e116100ab578063a22cb4651161006f578063a22cb4651461041f578063a845dc8e14610448578063b88d4fde14610485578063c27a500d146104ae578063c87b56dd146104d9578063e985e9c5146105165761012a565b80636352211e1461031e57806370a082311461035b57806374a4ac63146103985780637fe0a186146103b457806395d89b41146103f45761012a565b806320af4a89116100f257806320af4a891461023a57806323b872dd146102785780633548124b146102a157806342842e0e146102cc578063492a9271146102f55761012a565b806301ffc9a71461012f57806306fdde031461016c578063081812fc14610197578063095ea7b3146101d457806310241a44146101fd575b600080fd5b34801561013b57600080fd5b5061015660048036038101906101519190613ac6565b610553565b6040516101639190613b0e565b60405180910390f35b34801561017857600080fd5b50610181610635565b60405161018e9190613bb9565b60405180910390f35b3480156101a357600080fd5b506101be60048036038101906101b99190613c11565b6106c7565b6040516101cb9190613c7f565b60405180910390f35b3480156101e057600080fd5b506101fb60048036038101906101f69190613cc6565b61070d565b005b34801561020957600080fd5b50610224600480360381019061021f9190613c11565b610824565b6040516102319190613e7a565b60405180910390f35b34801561024657600080fd5b50610261600480360381019061025c9190613c11565b610b01565b60405161026f929190613eab565b60405180910390f35b34801561028457600080fd5b5061029f600480360381019061029a9190613ed4565b610bcf565b005b3480156102ad57600080fd5b506102b6610c2f565b6040516102c391906140e6565b60405180910390f35b3480156102d857600080fd5b506102f360048036038101906102ee9190613ed4565b6110d1565b005b34801561030157600080fd5b5061031c6004803603810190610317919061423d565b6110f1565b005b34801561032a57600080fd5b5061034560048036038101906103409190613c11565b611431565b6040516103529190613c7f565b60405180910390f35b34801561036757600080fd5b50610382600480360381019061037d919061431e565b6114b7565b60405161038f919061434b565b60405180910390f35b6103b260048036038101906103ad9190613c11565b61156e565b005b3480156103c057600080fd5b506103db60048036038101906103d69190613c11565b611c6e565b6040516103eb9493929190614366565b60405180910390f35b34801561040057600080fd5b50610409612149565b6040516104169190613bb9565b60405180910390f35b34801561042b57600080fd5b50610446600480360381019061044191906143e5565b6121db565b005b34801561045457600080fd5b5061046f600480360381019061046a919061431e565b6121f1565b60405161047c91906140e6565b60405180910390f35b34801561049157600080fd5b506104ac60048036038101906104a791906144c6565b6124f3565b005b3480156104ba57600080fd5b506104c3612555565b6040516104d091906140e6565b60405180910390f35b3480156104e557600080fd5b5061050060048036038101906104fb9190613c11565b612818565b60405161050d9190613bb9565b60405180910390f35b34801561052257600080fd5b5061053d60048036038101906105389190614549565b61282a565b60405161054a9190613b0e565b60405180910390f35b60007f80ac58cd000000000000000000000000000000000000000000000000000000007bffffffffffffffffffffffffffffffffffffffffffffffffffffffff1916827bffffffffffffffffffffffffffffffffffffffffffffffffffffffff1916148061061e57507f5b5e139f000000000000000000000000000000000000000000000000000000007bffffffffffffffffffffffffffffffffffffffffffffffffffffffff1916827bffffffffffffffffffffffffffffffffffffffffffffffffffffffff1916145b8061062e575061062d826128be565b5b9050919050565b606060008054610644906145b8565b80601f0160208091040260200160405190810160405280929190818152602001828054610670906145b8565b80156106bd5780601f10610692576101008083540402835291602001916106bd565b820191906000526020600020905b8154815290600101906020018083116106a057829003601f168201915b5050505050905090565b60006106d282612928565b6004600083815260200190815260200160002060009054906101000a900473ffffffffffffffffffffffffffffffffffffffff169050919050565b600061071882611431565b90508073ffffffffffffffffffffffffffffffffffffffff168373ffffffffffffffffffffffffffffffffffffffff1603610788576040517f08c379a000000000000000000000000000000000000000000000000000000000815260040161077f9061465b565b60405180910390fd5b8073ffffffffffffffffffffffffffffffffffffffff166107a7612973565b73ffffffffffffffffffffffffffffffffffffffff1614806107d657506107d5816107d0612973565b61282a565b5b610815576040517f08c379a000000000000000000000000000000000000000000000000000000000815260040161080c906146ed565b60405180910390fd5b61081f838361297b565b505050565b61082c6139e8565b6108366008612a34565b821115610878576040517f08c379a000000000000000000000000000000000000000000000000000000000815260040161086f90614759565b60405180910390fd5b60096000838152602001908152602001600020604051806101600160405290816000820160009054906101000a900473ffffffffffffffffffffffffffffffffffffffff1673ffffffffffffffffffffffffffffffffffffffff1673ffffffffffffffffffffffffffffffffffffffff1681526020016001820180546108fd906145b8565b80601f0160208091040260200160405190810160405280929190818152602001828054610929906145b8565b80156109765780601f1061094b57610100808354040283529160200191610976565b820191906000526020600020905b81548152906001019060200180831161095957829003601f168201915b5050505050815260200160028201805461098f906145b8565b80601f01602080910402602001604051908101604052809291908181526020018280546109bb906145b8565b8015610a085780601f106109dd57610100808354040283529160200191610a08565b820191906000526020600020905b8154815290600101906020018083116109eb57829003601f168201915b50505050508152602001600382018054610a21906145b8565b80601f0160208091040260200160405190810160405280929190818152602001828054610a4d906145b8565b8015610a9a5780601f10610a6f57610100808354040283529160200191610a9a565b820191906000526020600020905b815481529060010190602001808311610a7d57829003601f168201915b5050505050815260200160048201548152602001600582015481526020016006820154815260200160078201548152602001600882015481526020016009820160009054906101000a900460ff16151515158152602001600a820154815250509050919050565b600080600760009054906101000a900473ffffffffffffffffffffffffffffffffffffffff1673ffffffffffffffffffffffffffffffffffffffff163373ffffffffffffffffffffffffffffffffffffffff1614610b94576040517f08c379a0000000000000000000000000000000000000000000000000000000008152600401610b8b906147c5565b60405180910390fd5b600061271060b685610ba69190614814565b610bb09190614885565b905060008185610bc091906148b6565b90508181935093505050915091565b610be0610bda612973565b82612a42565b610c1f576040517f08c379a0000000000000000000000000000000000000000000000000000000008152600401610c169061495c565b60405180910390fd5b610c2a838383612ad7565b505050565b60606000600a8054905067ffffffffffffffff811115610c5257610c51614112565b5b604051908082528060200260200182016040528015610c8b57816020015b610c786139e8565b815260200190600190039081610c705790505b50905060008060005b8351811015610d29573373ffffffffffffffffffffffffffffffffffffffff166009600083815260200190815260200160002060000160009054906101000a900473ffffffffffffffffffffffffffffffffffffffff1673ffffffffffffffffffffffffffffffffffffffff1603610d1657600183610d13919061498c565b92505b8080610d21906149c4565b915050610c94565b508163ffffffff1667ffffffffffffffff811115610d4a57610d49614112565b5b604051908082528060200260200182016040528015610d8357816020015b610d706139e8565b815260200190600190039081610d685790505b50935060005b84518110156110ca573373ffffffffffffffffffffffffffffffffffffffff166009600083815260200190815260200160002060000160009054906101000a900473ffffffffffffffffffffffffffffffffffffffff1673ffffffffffffffffffffffffffffffffffffffff16036110b757600060096000838152602001908152602001600020905080604051806101600160405290816000820160009054906101000a900473ffffffffffffffffffffffffffffffffffffffff1673ffffffffffffffffffffffffffffffffffffffff1673ffffffffffffffffffffffffffffffffffffffff168152602001600182018054610e85906145b8565b80601f0160208091040260200160405190810160405280929190818152602001828054610eb1906145b8565b8015610efe5780601f10610ed357610100808354040283529160200191610efe565b820191906000526020600020905b815481529060010190602001808311610ee157829003601f168201915b50505050508152602001600282018054610f17906145b8565b80601f0160208091040260200160405190810160405280929190818152602001828054610f43906145b8565b8015610f905780601f10610f6557610100808354040283529160200191610f90565b820191906000526020600020905b815481529060010190602001808311610f7357829003601f168201915b50505050508152602001600382018054610fa9906145b8565b80601f0160208091040260200160405190810160405280929190818152602001828054610fd5906145b8565b80156110225780601f10610ff757610100808354040283529160200191611022565b820191906000526020600020905b81548152906001019060200180831161100557829003601f168201915b5050505050815260200160048201548152602001600582015481526020016006820154815260200160078201548152602001600882015481526020016009820160009054906101000a900460ff16151515158152602001600a82015481525050868463ffffffff168151811061109b5761109a614a0c565b5b60200260200101819052506001836110b3919061498c565b9250505b80806110c2906149c4565b915050610d89565b5050505090565b6110ec838383604051806020016040528060008152506124f3565b505050565b60006110fd6008612a34565b90506000844261110d9190614a3b565b90506000670de0b6b3a7640000856111259190614814565b90506111313084612dd0565b61113b8388612fed565b6040518061016001604052803373ffffffffffffffffffffffffffffffffffffffff1681526020018a81526020018981526020018881526020018381526020018281526020016000815260200185815260200160008152602001600115158152602001848152506009600085815260200190815260200160002060008201518160000160006101000a81548173ffffffffffffffffffffffffffffffffffffffff021916908373ffffffffffffffffffffffffffffffffffffffff16021790555060208201518160010190816112119190614c1b565b5060408201518160020190816112279190614c1b565b50606082015181600301908161123d9190614c1b565b506080820151816004015560a0820151816005015560c0820151816006015560e0820151816007015561010082015181600801556101208201518160090160006101000a81548160ff02191690831515021790555061014082015181600a0155905050600a6040518061016001604052803373ffffffffffffffffffffffffffffffffffffffff1681526020018b81526020018a815260200189815260200188815260200183815260200160008152602001868152602001600081526020016001151581526020018581525090806001815401808255809150506001900390600052602060002090600b020160009091909190915060008201518160000160006101000a81548173ffffffffffffffffffffffffffffffffffffffff021916908373ffffffffffffffffffffffffffffffffffffffff160217905550602082015181600101908161138e9190614c1b565b5060408201518160020190816113a49190614c1b565b5060608201518160030190816113ba9190614c1b565b506080820151816004015560a0820151816005015560c0820151816006015560e0820151816007015561010082015181600801556101208201518160090160006101000a81548160ff02191690831515021790555061014082015181600a01555050611426600861305a565b505050505050505050565b60008061143d83613070565b9050600073ffffffffffffffffffffffffffffffffffffffff168173ffffffffffffffffffffffffffffffffffffffff16036114ae576040517f08c379a00000000000000000000000000000000000000000000000000000000081526004016114a590614d39565b60405180910390fd5b80915050919050565b60008073ffffffffffffffffffffffffffffffffffffffff168273ffffffffffffffffffffffffffffffffffffffff1603611527576040517f08c379a000000000000000000000000000000000000000000000000000000000815260040161151e90614dcb565b60405180910390fd5b600360008373ffffffffffffffffffffffffffffffffffffffff1673ffffffffffffffffffffffffffffffffffffffff168152602001908152602001600020549050919050565b6115786008612a34565b8111156115ba576040517f08c379a00000000000000000000000000000000000000000000000000000000081526004016115b190614759565b60405180910390fd5b600060096000838152602001908152602001600020604051806101600160405290816000820160009054906101000a900473ffffffffffffffffffffffffffffffffffffffff1673ffffffffffffffffffffffffffffffffffffffff1673ffffffffffffffffffffffffffffffffffffffff168152602001600182018054611641906145b8565b80601f016020809104026020016040519081016040528092919081815260200182805461166d906145b8565b80156116ba5780601f1061168f576101008083540402835291602001916116ba565b820191906000526020600020905b81548152906001019060200180831161169d57829003601f168201915b505050505081526020016002820180546116d3906145b8565b80601f01602080910402602001604051908101604052809291908181526020018280546116ff906145b8565b801561174c5780601f106117215761010080835404028352916020019161174c565b820191906000526020600020905b81548152906001019060200180831161172f57829003601f168201915b50505050508152602001600382018054611765906145b8565b80601f0160208091040260200160405190810160405280929190818152602001828054611791906145b8565b80156117de5780601f106117b3576101008083540402835291602001916117de565b820191906000526020600020905b8154815290600101906020018083116117c157829003601f168201915b5050505050815260200160048201548152602001600582015481526020016006820154815260200160078201548152602001600882015481526020016009820160009054906101000a900460ff16151515158152602001600a82015481525050905060008160000151905060008260e00151905060008360a00151905060008460800151905060008560c00151905060008660a0015190506000876060015190506000886020015190506000896040015190508961012001516118d6576040517f08c379a00000000000000000000000000000000000000000000000000000000081526004016118cd90614e37565b60405180910390fd5b878510611918576040517f08c379a000000000000000000000000000000000000000000000000000000000815260040161190f90614ea3565b60405180910390fd5b86341461195a576040517f0d0894de00000000000000000000000000000000000000000000000000000000815260040161195190614f5b565b60405180910390fd5b600073ffffffffffffffffffffffffffffffffffffffff168973ffffffffffffffffffffffffffffffffffffffff16036119c9576040517f08c379a00000000000000000000000000000000000000000000000000000000081526004016119c090614fc7565b60405180910390fd5b854210611a0b576040517f08c379a0000000000000000000000000000000000000000000000000000000008152600401611a0290615033565b60405180910390fd5b6001600a8c81548110611a2157611a20614a0c565b5b90600052602060002090600b02016006016000828254611a419190614a3b565b9250508190555034600a8c81548110611a5d57611a5c614a0c565b5b90600052602060002090600b02016008016000828254611a7d9190614a3b565b92505081905550348a61010001818151611a979190614a3b565b91508181525050611aa833846130ad565b600b60003373ffffffffffffffffffffffffffffffffffffffff1673ffffffffffffffffffffffffffffffffffffffff1681526020019081526020016000206040518061016001604052803373ffffffffffffffffffffffffffffffffffffffff168152602001848152602001838152602001858152602001888152602001868152602001600081526020018a8152602001600081526020016001151581526020018d81525090806001815401808255809150506001900390600052602060002090600b020160009091909190915060008201518160000160006101000a81548173ffffffffffffffffffffffffffffffffffffffff021916908373ffffffffffffffffffffffffffffffffffffffff1602179055506020820151816001019081611bd39190614c1b565b506040820151816002019081611be99190614c1b565b506060820151816003019081611bff9190614c1b565b506080820151816004015560a0820151816005015560c0820151816006015560e0820151816007015561010082015181600801556101208201518160090160006101000a81548160ff02191690831515021790555061014082015181600a015550505050505050505050505050565b6060600060606000806009600087815260200190815260200160002060000160009054906101000a900473ffffffffffffffffffffffffffffffffffffffff1690508073ffffffffffffffffffffffffffffffffffffffff163373ffffffffffffffffffffffffffffffffffffffff1614611d1e576040517f08c379a0000000000000000000000000000000000000000000000000000000008152600401611d159061509f565b60405180910390fd5b611d286008612a34565b861115611d6a576040517f08c379a0000000000000000000000000000000000000000000000000000000008152600401611d6190614759565b60405180910390fd5b6009600087815260200190815260200160002060090160009054906101000a900460ff16611dcd576040517f08c379a0000000000000000000000000000000000000000000000000000000008152600401611dc490614e37565b60405180910390fd5b60006009600088815260200190815260200160002060090160006101000a81548160ff021916908315150217905550600060096000888152602001908152602001600020600801549050600073ffffffffffffffffffffffffffffffffffffffff168273ffffffffffffffffffffffffffffffffffffffff1603611e86576040517f08c379a0000000000000000000000000000000000000000000000000000000008152600401611e7d90614fc7565b60405180910390fd5b60008111611ec9576040517f08c379a0000000000000000000000000000000000000000000000000000000008152600401611ec090615131565b60405180910390fd5b6000803073ffffffffffffffffffffffffffffffffffffffff166320af4a89846040518263ffffffff1660e01b8152600401611f05919061434b565b6040805180830381865afa158015611f21573d6000803e3d6000fd5b505050506040513d601f19601f82011682018060405250810190611f459190615166565b915091506000600760009054906101000a900473ffffffffffffffffffffffffffffffffffffffff1673ffffffffffffffffffffffffffffffffffffffff1683604051611f91906151d7565b60006040518083038185875af1925050503d8060008114611fce576040519150601f19603f3d011682016040523d82523d6000602084013e611fd3565b606091505b5050905060008573ffffffffffffffffffffffffffffffffffffffff1683604051611ffd906151d7565b60006040518083038185875af1925050503d806000811461203a576040519150601f19603f3d011682016040523d82523d6000602084013e61203f565b606091505b5050905081612083576040517f08c379a000000000000000000000000000000000000000000000000000000000815260040161207a90615238565b60405180910390fd5b806120c3576040517f08c379a00000000000000000000000000000000000000000000000000000000081526004016120ba90615238565b60405180910390fd5b83836040518060400160405280600881526020017f4f7572206665653a00000000000000000000000000000000000000000000000081525091906040518060400160405280601c81526020017f416d6f756e742073656e7420746f206576656e742063726561746f72000000008152509099509950995099505050505050509193509193565b606060018054612158906145b8565b80601f0160208091040260200160405190810160405280929190818152602001828054612184906145b8565b80156121d15780601f106121a6576101008083540402835291602001916121d1565b820191906000526020600020905b8154815290600101906020018083116121b457829003601f168201915b5050505050905090565b6121ed6121e6612973565b83836130de565b5050565b6060600b60008373ffffffffffffffffffffffffffffffffffffffff1673ffffffffffffffffffffffffffffffffffffffff168152602001908152602001600020805480602002602001604051908101604052809291908181526020016000905b828210156124e857838290600052602060002090600b0201604051806101600160405290816000820160009054906101000a900473ffffffffffffffffffffffffffffffffffffffff1673ffffffffffffffffffffffffffffffffffffffff1673ffffffffffffffffffffffffffffffffffffffff1681526020016001820180546122dc906145b8565b80601f0160208091040260200160405190810160405280929190818152602001828054612308906145b8565b80156123555780601f1061232a57610100808354040283529160200191612355565b820191906000526020600020905b81548152906001019060200180831161233857829003601f168201915b5050505050815260200160028201805461236e906145b8565b80601f016020809104026020016040519081016040528092919081815260200182805461239a906145b8565b80156123e75780601f106123bc576101008083540402835291602001916123e7565b820191906000526020600020905b8154815290600101906020018083116123ca57829003601f168201915b50505050508152602001600382018054612400906145b8565b80601f016020809104026020016040519081016040528092919081815260200182805461242c906145b8565b80156124795780601f1061244e57610100808354040283529160200191612479565b820191906000526020600020905b81548152906001019060200180831161245c57829003601f168201915b5050505050815260200160048201548152602001600582015481526020016006820154815260200160078201548152602001600882015481526020016009820160009054906101000a900460ff16151515158152602001600a8201548152505081526020019060010190612252565b505050509050919050565b6125046124fe612973565b83612a42565b612543576040517f08c379a000000000000000000000000000000000000000000000000000000000815260040161253a9061495c565b60405180910390fd5b61254f8484848461324a565b50505050565b6060600a805480602002602001604051908101604052809291908181526020016000905b8282101561280f57838290600052602060002090600b0201604051806101600160405290816000820160009054906101000a900473ffffffffffffffffffffffffffffffffffffffff1673ffffffffffffffffffffffffffffffffffffffff1673ffffffffffffffffffffffffffffffffffffffff168152602001600182018054612603906145b8565b80601f016020809104026020016040519081016040528092919081815260200182805461262f906145b8565b801561267c5780601f106126515761010080835404028352916020019161267c565b820191906000526020600020905b81548152906001019060200180831161265f57829003601f168201915b50505050508152602001600282018054612695906145b8565b80601f01602080910402602001604051908101604052809291908181526020018280546126c1906145b8565b801561270e5780601f106126e35761010080835404028352916020019161270e565b820191906000526020600020905b8154815290600101906020018083116126f157829003601f168201915b50505050508152602001600382018054612727906145b8565b80601f0160208091040260200160405190810160405280929190818152602001828054612753906145b8565b80156127a05780601f10612775576101008083540402835291602001916127a0565b820191906000526020600020905b81548152906001019060200180831161278357829003601f168201915b5050505050815260200160048201548152602001600582015481526020016006820154815260200160078201548152602001600882015481526020016009820160009054906101000a900460ff16151515158152602001600a8201548152505081526020019060010190612579565b50505050905090565b6060612823826132a6565b9050919050565b6000600560008473ffffffffffffffffffffffffffffffffffffffff1673ffffffffffffffffffffffffffffffffffffffff16815260200190815260200160002060008373ffffffffffffffffffffffffffffffffffffffff1673ffffffffffffffffffffffffffffffffffffffff16815260200190815260200160002060009054906101000a900460ff16905092915050565b60007f01ffc9a7000000000000000000000000000000000000000000000000000000007bffffffffffffffffffffffffffffffffffffffffffffffffffffffff1916827bffffffffffffffffffffffffffffffffffffffffffffffffffffffff1916149050919050565b612931816133b8565b612970576040517f08c379a000000000000000000000000000000000000000000000000000000000815260040161296790614d39565b60405180910390fd5b50565b600033905090565b816004600083815260200190815260200160002060006101000a81548173ffffffffffffffffffffffffffffffffffffffff021916908373ffffffffffffffffffffffffffffffffffffffff160217905550808273ffffffffffffffffffffffffffffffffffffffff166129ee83611431565b73ffffffffffffffffffffffffffffffffffffffff167f8c5be1e5ebec7d5bd14f71427d1e84f3dd0314c0f7b2291e5b200ac8c7c3b92560405160405180910390a45050565b600081600001549050919050565b600080612a4e83611431565b90508073ffffffffffffffffffffffffffffffffffffffff168473ffffffffffffffffffffffffffffffffffffffff161480612a905750612a8f818561282a565b5b80612ace57508373ffffffffffffffffffffffffffffffffffffffff16612ab6846106c7565b73ffffffffffffffffffffffffffffffffffffffff16145b91505092915050565b8273ffffffffffffffffffffffffffffffffffffffff16612af782611431565b73ffffffffffffffffffffffffffffffffffffffff1614612b4d576040517f08c379a0000000000000000000000000000000000000000000000000000000008152600401612b44906152ca565b60405180910390fd5b600073ffffffffffffffffffffffffffffffffffffffff168273ffffffffffffffffffffffffffffffffffffffff1603612bbc576040517f08c379a0000000000000000000000000000000000000000000000000000000008152600401612bb39061535c565b60405180910390fd5b612bc983838360016133f9565b8273ffffffffffffffffffffffffffffffffffffffff16612be982611431565b73ffffffffffffffffffffffffffffffffffffffff1614612c3f576040517f08c379a0000000000000000000000000000000000000000000000000000000008152600401612c36906152ca565b60405180910390fd5b6004600082815260200190815260200160002060006101000a81549073ffffffffffffffffffffffffffffffffffffffff02191690556001600360008573ffffffffffffffffffffffffffffffffffffffff1673ffffffffffffffffffffffffffffffffffffffff168152602001908152602001600020600082825403925050819055506001600360008473ffffffffffffffffffffffffffffffffffffffff1673ffffffffffffffffffffffffffffffffffffffff16815260200190815260200160002060008282540192505081905550816002600083815260200190815260200160002060006101000a81548173ffffffffffffffffffffffffffffffffffffffff021916908373ffffffffffffffffffffffffffffffffffffffff160217905550808273ffffffffffffffffffffffffffffffffffffffff168473ffffffffffffffffffffffffffffffffffffffff167fddf252ad1be2c89b69c2b068fc378daa952ba7f163c4a11628f55a4df523b3ef60405160405180910390a4612dcb838383600161351f565b505050565b600073ffffffffffffffffffffffffffffffffffffffff168273ffffffffffffffffffffffffffffffffffffffff1603612e3f576040517f08c379a0000000000000000000000000000000000000000000000000000000008152600401612e36906153c8565b60405180910390fd5b612e48816133b8565b15612e88576040517f08c379a0000000000000000000000000000000000000000000000000000000008152600401612e7f90615434565b60405180910390fd5b612e966000838360016133f9565b612e9f816133b8565b15612edf576040517f08c379a0000000000000000000000000000000000000000000000000000000008152600401612ed690615434565b60405180910390fd5b6001600360008473ffffffffffffffffffffffffffffffffffffffff1673ffffffffffffffffffffffffffffffffffffffff16815260200190815260200160002060008282540192505081905550816002600083815260200190815260200160002060006101000a81548173ffffffffffffffffffffffffffffffffffffffff021916908373ffffffffffffffffffffffffffffffffffffffff160217905550808273ffffffffffffffffffffffffffffffffffffffff16600073ffffffffffffffffffffffffffffffffffffffff167fddf252ad1be2c89b69c2b068fc378daa952ba7f163c4a11628f55a4df523b3ef60405160405180910390a4612fe960008383600161351f565b5050565b612ff6826133b8565b613035576040517f08c379a000000000000000000000000000000000000000000000000000000000815260040161302c906154c6565b60405180910390fd5b806006600084815260200190815260200160002090816130559190614c1b565b505050565b6001816000016000828254019250508190555050565b60006002600083815260200190815260200160002060009054906101000a900473ffffffffffffffffffffffffffffffffffffffff169050919050565b60006130b96008612a34565b90506130c5600861305a565b6130cf8382613525565b6130d98183612fed565b505050565b8173ffffffffffffffffffffffffffffffffffffffff168373ffffffffffffffffffffffffffffffffffffffff160361314c576040517f08c379a000000000000000000000000000000000000000000000000000000000815260040161314390615532565b60405180910390fd5b80600560008573ffffffffffffffffffffffffffffffffffffffff1673ffffffffffffffffffffffffffffffffffffffff16815260200190815260200160002060008473ffffffffffffffffffffffffffffffffffffffff1673ffffffffffffffffffffffffffffffffffffffff16815260200190815260200160002060006101000a81548160ff0219169083151502179055508173ffffffffffffffffffffffffffffffffffffffff168373ffffffffffffffffffffffffffffffffffffffff167f17307eab39ab6107e8899845ad3d59bd9653f200f220920489ca2b5937696c318360405161323d9190613b0e565b60405180910390a3505050565b613255848484612ad7565b61326184848484613543565b6132a0576040517f08c379a0000000000000000000000000000000000000000000000000000000008152600401613297906155c4565b60405180910390fd5b50505050565b60606132b182612928565b60006006600084815260200190815260200160002080546132d1906145b8565b80601f01602080910402602001604051908101604052809291908181526020018280546132fd906145b8565b801561334a5780601f1061331f5761010080835404028352916020019161334a565b820191906000526020600020905b81548152906001019060200180831161332d57829003601f168201915b50505050509050600061335b6136ca565b905060008151036133705781925050506133b3565b6000825111156133a557808260405160200161338d929190615620565b604051602081830303815290604052925050506133b3565b6133ae846136e1565b925050505b919050565b60008073ffffffffffffffffffffffffffffffffffffffff166133da83613070565b73ffffffffffffffffffffffffffffffffffffffff1614159050919050565b600181111561351957600073ffffffffffffffffffffffffffffffffffffffff168473ffffffffffffffffffffffffffffffffffffffff161461348d5780600360008673ffffffffffffffffffffffffffffffffffffffff1673ffffffffffffffffffffffffffffffffffffffff168152602001908152602001600020600082825461348591906148b6565b925050819055505b600073ffffffffffffffffffffffffffffffffffffffff168373ffffffffffffffffffffffffffffffffffffffff16146135185780600360008573ffffffffffffffffffffffffffffffffffffffff1673ffffffffffffffffffffffffffffffffffffffff16815260200190815260200160002060008282546135109190614a3b565b925050819055505b5b50505050565b50505050565b61353f828260405180602001604052806000815250613749565b5050565b60006135648473ffffffffffffffffffffffffffffffffffffffff166137a4565b156136bd578373ffffffffffffffffffffffffffffffffffffffff1663150b7a0261358d612973565b8786866040518563ffffffff1660e01b81526004016135af9493929190615699565b6020604051808303816000875af19250505080156135eb57506040513d601f19601f820116820180604052508101906135e891906156fa565b60015b61366d573d806000811461361b576040519150601f19603f3d011682016040523d82523d6000602084013e613620565b606091505b506000815103613665576040517f08c379a000000000000000000000000000000000000000000000000000000000815260040161365c906155c4565b60405180910390fd5b805181602001fd5b63150b7a0260e01b7bffffffffffffffffffffffffffffffffffffffffffffffffffffffff1916817bffffffffffffffffffffffffffffffffffffffffffffffffffffffff1916149150506136c2565b600190505b949350505050565b606060405180602001604052806000815250905090565b60606136ec82612928565b60006136f66136ca565b905060008151116137165760405180602001604052806000815250613741565b80613720846137c7565b604051602001613731929190615620565b6040516020818303038152906040525b915050919050565b6137538383612dd0565b6137606000848484613543565b61379f576040517f08c379a0000000000000000000000000000000000000000000000000000000008152600401613796906155c4565b60405180910390fd5b505050565b6000808273ffffffffffffffffffffffffffffffffffffffff163b119050919050565b6060600060016137d684613895565b01905060008167ffffffffffffffff8111156137f5576137f4614112565b5b6040519080825280601f01601f1916602001820160405280156138275781602001600182028036833780820191505090505b509050600082602001820190505b60011561388a578080600190039150507f3031323334353637383961626364656600000000000000000000000000000000600a86061a8153600a858161387e5761387d614856565b5b04945060008503613835575b819350505050919050565b600080600090507a184f03e93ff9f4daa797ed6e38ed64bf6a1f01000000000000000083106138f3577a184f03e93ff9f4daa797ed6e38ed64bf6a1f01000000000000000083816138e9576138e8614856565b5b0492506040810190505b6d04ee2d6d415b85acef81000000008310613930576d04ee2d6d415b85acef8100000000838161392657613925614856565b5b0492506020810190505b662386f26fc10000831061395f57662386f26fc10000838161395557613954614856565b5b0492506010810190505b6305f5e1008310613988576305f5e100838161397e5761397d614856565b5b0492506008810190505b61271083106139ad5761271083816139a3576139a2614856565b5b0492506004810190505b606483106139d057606483816139c6576139c5614856565b5b0492506002810190505b600a83106139df576001810190505b80915050919050565b604051806101600160405280600073ffffffffffffffffffffffffffffffffffffffff1681526020016060815260200160608152602001606081526020016000815260200160008152602001600081526020016000815260200160008152602001600015158152602001600081525090565b6000604051905090565b600080fd5b600080fd5b60007fffffffff0000000000000000000000000000000000000000000000000000000082169050919050565b613aa381613a6e565b8114613aae57600080fd5b50565b600081359050613ac081613a9a565b92915050565b600060208284031215613adc57613adb613a64565b5b6000613aea84828501613ab1565b91505092915050565b60008115159050919050565b613b0881613af3565b82525050565b6000602082019050613b236000830184613aff565b92915050565b600081519050919050565b600082825260208201905092915050565b60005b83811015613b63578082015181840152602081019050613b48565b60008484015250505050565b6000601f19601f8301169050919050565b6000613b8b82613b29565b613b958185613b34565b9350613ba5818560208601613b45565b613bae81613b6f565b840191505092915050565b60006020820190508181036000830152613bd38184613b80565b905092915050565b6000819050919050565b613bee81613bdb565b8114613bf957600080fd5b50565b600081359050613c0b81613be5565b92915050565b600060208284031215613c2757613c26613a64565b5b6000613c3584828501613bfc565b91505092915050565b600073ffffffffffffffffffffffffffffffffffffffff82169050919050565b6000613c6982613c3e565b9050919050565b613c7981613c5e565b82525050565b6000602082019050613c946000830184613c70565b92915050565b613ca381613c5e565b8114613cae57600080fd5b50565b600081359050613cc081613c9a565b92915050565b60008060408385031215613cdd57613cdc613a64565b5b6000613ceb85828601613cb1565b9250506020613cfc85828601613bfc565b9150509250929050565b613d0f81613c5e565b82525050565b600082825260208201905092915050565b6000613d3182613b29565b613d3b8185613d15565b9350613d4b818560208601613b45565b613d5481613b6f565b840191505092915050565b613d6881613bdb565b82525050565b613d7781613af3565b82525050565b600061016083016000830151613d966000860182613d06565b5060208301518482036020860152613dae8282613d26565b91505060408301518482036040860152613dc88282613d26565b91505060608301518482036060860152613de28282613d26565b9150506080830151613df76080860182613d5f565b5060a0830151613e0a60a0860182613d5f565b5060c0830151613e1d60c0860182613d5f565b5060e0830151613e3060e0860182613d5f565b50610100830151613e45610100860182613d5f565b50610120830151613e5a610120860182613d6e565b50610140830151613e6f610140860182613d5f565b508091505092915050565b60006020820190508181036000830152613e948184613d7d565b905092915050565b613ea581613bdb565b82525050565b6000604082019050613ec06000830185613e9c565b613ecd6020830184613e9c565b9392505050565b600080600060608486031215613eed57613eec613a64565b5b6000613efb86828701613cb1565b9350506020613f0c86828701613cb1565b9250506040613f1d86828701613bfc565b9150509250925092565b600081519050919050565b600082825260208201905092915050565b6000819050602082019050919050565b600061016083016000830151613f6c6000860182613d06565b5060208301518482036020860152613f848282613d26565b91505060408301518482036040860152613f9e8282613d26565b91505060608301518482036060860152613fb88282613d26565b9150506080830151613fcd6080860182613d5f565b5060a0830151613fe060a0860182613d5f565b5060c0830151613ff360c0860182613d5f565b5060e083015161400660e0860182613d5f565b5061010083015161401b610100860182613d5f565b50610120830151614030610120860182613d6e565b50610140830151614045610140860182613d5f565b508091505092915050565b600061405c8383613f53565b905092915050565b6000602082019050919050565b600061407c82613f27565b6140868185613f32565b93508360208202850161409885613f43565b8060005b858110156140d457848403895281516140b58582614050565b94506140c083614064565b925060208a0199505060018101905061409c565b50829750879550505050505092915050565b600060208201905081810360008301526141008184614071565b905092915050565b600080fd5b600080fd5b7f4e487b7100000000000000000000000000000000000000000000000000000000600052604160045260246000fd5b61414a82613b6f565b810181811067ffffffffffffffff8211171561416957614168614112565b5b80604052505050565b600061417c613a5a565b90506141888282614141565b919050565b600067ffffffffffffffff8211156141a8576141a7614112565b5b6141b182613b6f565b9050602081019050919050565b82818337600083830152505050565b60006141e06141db8461418d565b614172565b9050828152602081018484840111156141fc576141fb61410d565b5b6142078482856141be565b509392505050565b600082601f83011261422457614223614108565b5b81356142348482602086016141cd565b91505092915050565b60008060008060008060c0878903121561425a57614259613a64565b5b600087013567ffffffffffffffff81111561427857614277613a69565b5b61428489828a0161420f565b965050602087013567ffffffffffffffff8111156142a5576142a4613a69565b5b6142b189828a0161420f565b955050604087013567ffffffffffffffff8111156142d2576142d1613a69565b5b6142de89828a0161420f565b94505060606142ef89828a01613bfc565b935050608061430089828a01613bfc565b92505060a061431189828a01613bfc565b9150509295509295509295565b60006020828403121561433457614333613a64565b5b600061434284828501613cb1565b91505092915050565b60006020820190506143606000830184613e9c565b92915050565b600060808201905081810360008301526143808187613b80565b905061438f6020830186613e9c565b81810360408301526143a18185613b80565b90506143b06060830184613e9c565b95945050505050565b6143c281613af3565b81146143cd57600080fd5b50565b6000813590506143df816143b9565b92915050565b600080604083850312156143fc576143fb613a64565b5b600061440a85828601613cb1565b925050602061441b858286016143d0565b9150509250929050565b600067ffffffffffffffff8211156144405761443f614112565b5b61444982613b6f565b9050602081019050919050565b600061446961446484614425565b614172565b9050828152602081018484840111156144855761448461410d565b5b6144908482856141be565b509392505050565b600082601f8301126144ad576144ac614108565b5b81356144bd848260208601614456565b91505092915050565b600080600080608085870312156144e0576144df613a64565b5b60006144ee87828801613cb1565b94505060206144ff87828801613cb1565b935050604061451087828801613bfc565b925050606085013567ffffffffffffffff81111561453157614530613a69565b5b61453d87828801614498565b91505092959194509250565b600080604083850312156145605761455f613a64565b5b600061456e85828601613cb1565b925050602061457f85828601613cb1565b9150509250929050565b7f4e487b7100000000000000000000000000000000000000000000000000000000600052602260045260246000fd5b600060028204905060018216806145d057607f821691505b6020821081036145e3576145e2614589565b5b50919050565b7f4552433732313a20617070726f76616c20746f2063757272656e74206f776e6560008201527f7200000000000000000000000000000000000000000000000000000000000000602082015250565b6000614645602183613b34565b9150614650826145e9565b604082019050919050565b6000602082019050818103600083015261467481614638565b9050919050565b7f4552433732313a20617070726f76652063616c6c6572206973206e6f7420746f60008201527f6b656e206f776e6572206f7220617070726f76656420666f7220616c6c000000602082015250565b60006146d7603d83613b34565b91506146e28261467b565b604082019050919050565b60006020820190508181036000830152614706816146ca565b9050919050565b7f546f6b656e20646f6573206e6f74206578697374000000000000000000000000600082015250565b6000614743601483613b34565b915061474e8261470d565b602082019050919050565b6000602082019050818103600083015261477281614736565b9050919050565b7f4e6f74206f776e65720000000000000000000000000000000000000000000000600082015250565b60006147af600983613b34565b91506147ba82614779565b602082019050919050565b600060208201905081810360008301526147de816147a2565b9050919050565b7f4e487b7100000000000000000000000000000000000000000000000000000000600052601160045260246000fd5b600061481f82613bdb565b915061482a83613bdb565b925082820261483881613bdb565b9150828204841483151761484f5761484e6147e5565b5b5092915050565b7f4e487b7100000000000000000000000000000000000000000000000000000000600052601260045260246000fd5b600061489082613bdb565b915061489b83613bdb565b9250826148ab576148aa614856565b5b828204905092915050565b60006148c182613bdb565b91506148cc83613bdb565b92508282039050818111156148e4576148e36147e5565b5b92915050565b7f4552433732313a2063616c6c6572206973206e6f7420746f6b656e206f776e6560008201527f72206f7220617070726f76656400000000000000000000000000000000000000602082015250565b6000614946602d83613b34565b9150614951826148ea565b604082019050919050565b6000602082019050818103600083015261497581614939565b9050919050565b600063ffffffff82169050919050565b60006149978261497c565b91506149a28361497c565b9250828201905063ffffffff8111156149be576149bd6147e5565b5b92915050565b60006149cf82613bdb565b91507fffffffffffffffffffffffffffffffffffffffffffffffffffffffffffffffff8203614a0157614a006147e5565b5b600182019050919050565b7f4e487b7100000000000000000000000000000000000000000000000000000000600052603260045260246000fd5b6000614a4682613bdb565b9150614a5183613bdb565b9250828201905080821115614a6957614a686147e5565b5b92915050565b60008190508160005260206000209050919050565b60006020601f8301049050919050565b600082821b905092915050565b600060088302614ad17fffffffffffffffffffffffffffffffffffffffffffffffffffffffffffffffff82614a94565b614adb8683614a94565b95508019841693508086168417925050509392505050565b6000819050919050565b6000614b18614b13614b0e84613bdb565b614af3565b613bdb565b9050919050565b6000819050919050565b614b3283614afd565b614b46614b3e82614b1f565b848454614aa1565b825550505050565b600090565b614b5b614b4e565b614b66818484614b29565b505050565b5b81811015614b8a57614b7f600082614b53565b600181019050614b6c565b5050565b601f821115614bcf57614ba081614a6f565b614ba984614a84565b81016020851015614bb8578190505b614bcc614bc485614a84565b830182614b6b565b50505b505050565b600082821c905092915050565b6000614bf260001984600802614bd4565b1980831691505092915050565b6000614c0b8383614be1565b9150826002028217905092915050565b614c2482613b29565b67ffffffffffffffff811115614c3d57614c3c614112565b5b614c4782546145b8565b614c52828285614b8e565b600060209050601f831160018114614c855760008415614c73578287015190505b614c7d8582614bff565b865550614ce5565b601f198416614c9386614a6f565b60005b82811015614cbb57848901518255600182019150602085019450602081019050614c96565b86831015614cd85784890151614cd4601f891682614be1565b8355505b6001600288020188555050505b505050505050565b7f4552433732313a20696e76616c696420746f6b656e2049440000000000000000600082015250565b6000614d23601883613b34565b9150614d2e82614ced565b602082019050919050565b60006020820190508181036000830152614d5281614d16565b9050919050565b7f4552433732313a2061646472657373207a65726f206973206e6f74206120766160008201527f6c6964206f776e65720000000000000000000000000000000000000000000000602082015250565b6000614db5602983613b34565b9150614dc082614d59565b604082019050919050565b60006020820190508181036000830152614de481614da8565b9050919050565b7f5469636b65742073616c6520656e646564000000000000000000000000000000600082015250565b6000614e21601183613b34565b9150614e2c82614deb565b602082019050919050565b60006020820190508181036000830152614e5081614e14565b9050919050565b7f546f74616c20737570706c79206f66207469636b657420726561636865640000600082015250565b6000614e8d601e83613b34565b9150614e9882614e57565b602082019050919050565b60006020820190508181036000830152614ebc81614e80565b9050919050565b7f4572726f723a20506c65617365207375626d6974207468652061736b696e672060008201527f707269636520696e206f7264657220746f20636f6d706c657465207469636b6560208201527f7420707572636861736500000000000000000000000000000000000000000000604082015250565b6000614f45604a83613b34565b9150614f5082614ec3565b606082019050919050565b60006020820190508181036000830152614f7481614f38565b9050919050565b7f4572726f723a20496e76616c6964205469636b65740000000000000000000000600082015250565b6000614fb1601583613b34565b9150614fbc82614f7b565b602082019050919050565b60006020820190508181036000830152614fe081614fa4565b9050919050565b7f4572726f723a205469636b657420657870697265640000000000000000000000600082015250565b600061501d601583613b34565b915061502882614fe7565b602082019050919050565b6000602082019050818103600083015261504c81615010565b9050919050565b7f4e6f74206576656e74206f776e65720000000000000000000000000000000000600082015250565b6000615089600f83613b34565b915061509482615053565b602082019050919050565b600060208201905081810360008301526150b88161507c565b9050919050565b7f4572726f723a204e6f207469636b65742073616c65207965742c206e6f74686960008201527f6e6720746f207769746864726177000000000000000000000000000000000000602082015250565b600061511b602e83613b34565b9150615126826150bf565b604082019050919050565b6000602082019050818103600083015261514a8161510e565b9050919050565b60008151905061516081613be5565b92915050565b6000806040838503121561517d5761517c613a64565b5b600061518b85828601615151565b925050602061519c85828601615151565b9150509250929050565b600081905092915050565b50565b60006151c16000836151a6565b91506151cc826151b1565b600082019050919050565b60006151e2826151b4565b9150819050919050565b7f4661696c656420746f2073656e64000000000000000000000000000000000000600082015250565b6000615222600e83613b34565b915061522d826151ec565b602082019050919050565b6000602082019050818103600083015261525181615215565b9050919050565b7f4552433732313a207472616e736665722066726f6d20696e636f72726563742060008201527f6f776e6572000000000000000000000000000000000000000000000000000000602082015250565b60006152b4602583613b34565b91506152bf82615258565b604082019050919050565b600060208201905081810360008301526152e3816152a7565b9050919050565b7f4552433732313a207472616e7366657220746f20746865207a65726f2061646460008201527f7265737300000000000000000000000000000000000000000000000000000000602082015250565b6000615346602483613b34565b9150615351826152ea565b604082019050919050565b6000602082019050818103600083015261537581615339565b9050919050565b7f4552433732313a206d696e7420746f20746865207a65726f2061646472657373600082015250565b60006153b2602083613b34565b91506153bd8261537c565b602082019050919050565b600060208201905081810360008301526153e1816153a5565b9050919050565b7f4552433732313a20746f6b656e20616c7265616479206d696e74656400000000600082015250565b600061541e601c83613b34565b9150615429826153e8565b602082019050919050565b6000602082019050818103600083015261544d81615411565b9050919050565b7f45524337323155524953746f726167653a2055524920736574206f66206e6f6e60008201527f6578697374656e7420746f6b656e000000000000000000000000000000000000602082015250565b60006154b0602e83613b34565b91506154bb82615454565b604082019050919050565b600060208201905081810360008301526154df816154a3565b9050919050565b7f4552433732313a20617070726f766520746f2063616c6c657200000000000000600082015250565b600061551c601983613b34565b9150615527826154e6565b602082019050919050565b6000602082019050818103600083015261554b8161550f565b9050919050565b7f4552433732313a207472616e7366657220746f206e6f6e20455243373231526560008201527f63656976657220696d706c656d656e7465720000000000000000000000000000602082015250565b60006155ae603283613b34565b91506155b982615552565b604082019050919050565b600060208201905081810360008301526155dd816155a1565b9050919050565b600081905092915050565b60006155fa82613b29565b61560481856155e4565b9350615614818560208601613b45565b80840191505092915050565b600061562c82856155ef565b915061563882846155ef565b91508190509392505050565b600081519050919050565b600082825260208201905092915050565b600061566b82615644565b615675818561564f565b9350615685818560208601613b45565b61568e81613b6f565b840191505092915050565b60006080820190506156ae6000830187613c70565b6156bb6020830186613c70565b6156c86040830185613e9c565b81810360608301526156da8184615660565b905095945050505050565b6000815190506156f481613a9a565b92915050565b6000602082840312156157105761570f613a64565b5b600061571e848285016156e5565b9150509291505056fea26469706673582212203717059a076cee70f7d70d8ef7a670a0b52ad0ded289d57c9b51e025c6faef0764736f6c63430008110033",
"linkReferences": {},
"deployedLinkReferences": {}
}